{
	"contracts/MyStructContract.sol": {
		"MyStructContract": {
			"abi": [
				{
					"inputs": [
						{
							"internalType": "string",
							"name": "name",
							"type": "string"
						},
						{
							"internalType": "uint256",
							"name": "age",
							"type": "uint256"
						}
					],
					"name": "addPerson",
					"outputs": [],
					"stateMutability": "nonpayable",
					"type": "function"
				},
				{
					"inputs": [],
					"name": "getPeopleCount",
					"outputs": [
						{
							"internalType": "uint256",
							"name": "",
							"type": "uint256"
						}
					],
					"stateMutability": "view",
					"type": "function"
				},
				{
					"inputs": [
						{
							"internalType": "uint256",
							"name": "_index",
							"type": "uint256"
						}
					],
					"name": "getPersonAge",
					"outputs": [
						{
							"internalType": "uint256",
							"name": "",
							"type": "uint256"
						}
					],
					"stateMutability": "view",
					"type": "function"
				},
				{
					"inputs": [
						{
							"internalType": "uint256",
							"name": "_index",
							"type": "uint256"
						}
					],
					"name": "getPersonName",
					"outputs": [
						{
							"internalType": "string",
							"name": "",
							"type": "string"
						}
					],
					"stateMutability": "view",
					"type": "function"
				}
			],
			"devdoc": {
				"kind": "dev",
				"methods": {},
				"version": 1
			},
			"evm": {
				"assembly": "    /* \"contracts/MyStructContract.sol\":70:686  contract MyStructContract {... */\n  mstore(0x40, 0x80)\n  callvalue\n  dup1\n  iszero\n  tag_1\n  jumpi\n  0x00\n  dup1\n  revert\ntag_1:\n  pop\n  dataSize(sub_0)\n  dup1\n  dataOffset(sub_0)\n  0x00\n  codecopy\n  0x00\n  return\nstop\n\nsub_0: assembly {\n        /* \"contracts/MyStructContract.sol\":70:686  contract MyStructContract {... */\n      mstore(0x40, 0x80)\n      callvalue\n      dup1\n      iszero\n      tag_1\n      jumpi\n      0x00\n      dup1\n      revert\n    tag_1:\n      pop\n      jumpi(tag_2, lt(calldatasize, 0x04))\n      shr(0xe0, calldataload(0x00))\n      dup1\n      0x40ab422e\n      eq\n      tag_3\n      jumpi\n      dup1\n      0x689b55dd\n      eq\n      tag_4\n      jumpi\n      dup1\n      0x6f760f41\n      eq\n      tag_5\n      jumpi\n      dup1\n      0xa9d53186\n      eq\n      tag_6\n      jumpi\n    tag_2:\n      0x00\n      dup1\n      revert\n        /* \"contracts/MyStructContract.sol\":357:473  function getPersonName(uint _index) public view returns(string memory) {... */\n    tag_3:\n      tag_7\n      0x04\n      dup1\n      calldatasize\n      sub\n      dup2\n      add\n      swap1\n      tag_8\n      swap2\n      swap1\n      tag_9\n      jump\t// in\n    tag_8:\n      tag_10\n      jump\t// in\n    tag_7:\n      mload(0x40)\n      tag_11\n      swap2\n      swap1\n      tag_12\n      jump\t// in\n    tag_11:\n      mload(0x40)\n      dup1\n      swap2\n      sub\n      swap1\n      return\n        /* \"contracts/MyStructContract.sol\":481:585  function getPersonAge(uint _index) public view returns(uint){... */\n    tag_4:\n      tag_13\n      0x04\n      dup1\n      calldatasize\n      sub\n      dup2\n      add\n      swap1\n      tag_14\n      swap2\n      swap1\n      tag_9\n      jump\t// in\n    tag_14:\n      tag_15\n      jump\t// in\n    tag_13:\n      mload(0x40)\n      tag_16\n      swap2\n      swap1\n      tag_17\n      jump\t// in\n    tag_16:\n      mload(0x40)\n      dup1\n      swap2\n      sub\n      swap1\n      return\n        /* \"contracts/MyStructContract.sol\":198:349  function addPerson(string memory name, uint age) public {... */\n    tag_5:\n      tag_18\n      0x04\n      dup1\n      calldatasize\n      sub\n      dup2\n      add\n      swap1\n      tag_19\n      swap2\n      swap1\n      tag_20\n      jump\t// in\n    tag_19:\n      tag_21\n      jump\t// in\n    tag_18:\n      stop\n        /* \"contracts/MyStructContract.sol\":593:683  function getPeopleCount() public view returns(uint){... */\n    tag_6:\n      tag_22\n      tag_23\n      jump\t// in\n    tag_22:\n      mload(0x40)\n      tag_24\n      swap2\n      swap1\n      tag_17\n      jump\t// in\n    tag_24:\n      mload(0x40)\n      dup1\n      swap2\n      sub\n      swap1\n      return\n        /* \"contracts/MyStructContract.sol\":357:473  function getPersonName(uint _index) public view returns(string memory) {... */\n    tag_10:\n        /* \"contracts/MyStructContract.sol\":413:426  string memory */\n      0x60\n        /* \"contracts/MyStructContract.sol\":446:452  people */\n      0x00\n        /* \"contracts/MyStructContract.sol\":453:459  _index */\n      dup3\n        /* \"contracts/MyStructContract.sol\":446:460  people[_index] */\n      dup2\n      sload\n      dup2\n      lt\n      tag_26\n      jumpi\n      tag_27\n      tag_28\n      jump\t// in\n    tag_27:\n    tag_26:\n      swap1\n      0x00\n      mstore\n      keccak256(0x00, 0x20)\n      swap1\n      0x02\n      mul\n      add\n        /* \"contracts/MyStructContract.sol\":446:465  people[_index].name */\n      0x00\n      add\n        /* \"contracts/MyStructContract.sol\":439:465  return people[_index].name */\n      dup1\n      sload\n      tag_30\n      swap1\n      tag_31\n      jump\t// in\n    tag_30:\n      dup1\n      0x1f\n      add\n      0x20\n      dup1\n      swap2\n      div\n      mul\n      0x20\n      add\n      mload(0x40)\n      swap1\n      dup2\n      add\n      0x40\n      mstore\n      dup1\n      swap3\n      swap2\n      swap1\n      dup2\n      dup2\n      mstore\n      0x20\n      add\n      dup3\n      dup1\n      sload\n      tag_32\n      swap1\n      tag_31\n      jump\t// in\n    tag_32:\n      dup1\n      iszero\n      tag_33\n      jumpi\n      dup1\n      0x1f\n      lt\n      tag_34\n      jumpi\n      0x0100\n      dup1\n      dup4\n      sload\n      div\n      mul\n      dup4\n      mstore\n      swap2\n      0x20\n      add\n      swap2\n      jump(tag_33)\n    tag_34:\n      dup3\n      add\n      swap2\n      swap1\n      0x00\n      mstore\n      keccak256(0x00, 0x20)\n      swap1\n    tag_35:\n      dup2\n      sload\n      dup2\n      mstore\n      swap1\n      0x01\n      add\n      swap1\n      0x20\n      add\n      dup1\n      dup4\n      gt\n      tag_35\n      jumpi\n      dup3\n      swap1\n      sub\n      0x1f\n      and\n      dup3\n      add\n      swap2\n    tag_33:\n      pop\n      pop\n      pop\n      pop\n      pop\n      swap1\n      pop\n        /* \"contracts/MyStructContract.sol\":357:473  function getPersonName(uint _index) public view returns(string memory) {... */\n      swap2\n      swap1\n      pop\n      jump\t// out\n        /* \"contracts/MyStructContract.sol\":481:585  function getPersonAge(uint _index) public view returns(uint){... */\n    tag_15:\n        /* \"contracts/MyStructContract.sol\":536:540  uint */\n      0x00\n        /* \"contracts/MyStructContract.sol\":559:565  people */\n      dup1\n        /* \"contracts/MyStructContract.sol\":566:572  _index */\n      dup3\n        /* \"contracts/MyStructContract.sol\":559:573  people[_index] */\n      dup2\n      sload\n      dup2\n      lt\n      tag_37\n      jumpi\n      tag_38\n      tag_28\n      jump\t// in\n    tag_38:\n    tag_37:\n      swap1\n      0x00\n      mstore\n      keccak256(0x00, 0x20)\n      swap1\n      0x02\n      mul\n      add\n        /* \"contracts/MyStructContract.sol\":559:577  people[_index].age */\n      0x01\n      add\n      sload\n        /* \"contracts/MyStructContract.sol\":552:577  return people[_index].age */\n      swap1\n      pop\n        /* \"contracts/MyStructContract.sol\":481:585  function getPersonAge(uint _index) public view returns(uint){... */\n      swap2\n      swap1\n      pop\n      jump\t// out\n        /* \"contracts/MyStructContract.sol\":198:349  function addPerson(string memory name, uint age) public {... */\n    tag_21:\n        /* \"contracts/MyStructContract.sol\":265:288  Person memory newPerson */\n      0x00\n        /* \"contracts/MyStructContract.sol\":291:308  Person(name, age) */\n      mload(0x40)\n      dup1\n      0x40\n      add\n      0x40\n      mstore\n      dup1\n        /* \"contracts/MyStructContract.sol\":298:302  name */\n      dup5\n        /* \"contracts/MyStructContract.sol\":291:308  Person(name, age) */\n      dup2\n      mstore\n      0x20\n      add\n        /* \"contracts/MyStructContract.sol\":304:307  age */\n      dup4\n        /* \"contracts/MyStructContract.sol\":291:308  Person(name, age) */\n      dup2\n      mstore\n      pop\n        /* \"contracts/MyStructContract.sol\":265:308  Person memory newPerson = Person(name, age) */\n      swap1\n      pop\n        /* \"contracts/MyStructContract.sol\":319:325  people */\n      0x00\n        /* \"contracts/MyStructContract.sol\":331:340  newPerson */\n      dup2\n        /* \"contracts/MyStructContract.sol\":319:341  people.push(newPerson) */\n      swap1\n      dup1\n      0x01\n      dup2\n      sload\n      add\n      dup1\n      dup3\n      sstore\n      dup1\n      swap2\n      pop\n      pop\n      0x01\n      swap1\n      sub\n      swap1\n      0x00\n      mstore\n      keccak256(0x00, 0x20)\n      swap1\n      0x02\n      mul\n      add\n      0x00\n      swap1\n      swap2\n      swap1\n      swap2\n      swap1\n      swap2\n      pop\n      0x00\n      dup3\n      add\n      mload\n      dup2\n      0x00\n      add\n      swap1\n      dup2\n      tag_42\n      swap2\n      swap1\n      tag_43\n      jump\t// in\n    tag_42:\n      pop\n      0x20\n      dup3\n      add\n      mload\n      dup2\n      0x01\n      add\n      sstore\n      pop\n      pop\n        /* \"contracts/MyStructContract.sol\":254:349  {... */\n      pop\n        /* \"contracts/MyStructContract.sol\":198:349  function addPerson(string memory name, uint age) public {... */\n      pop\n      pop\n      jump\t// out\n        /* \"contracts/MyStructContract.sol\":593:683  function getPeopleCount() public view returns(uint){... */\n    tag_23:\n        /* \"contracts/MyStructContract.sol\":639:643  uint */\n      0x00\n        /* \"contracts/MyStructContract.sol\":662:668  people */\n      dup1\n        /* \"contracts/MyStructContract.sol\":662:675  people.length */\n      dup1\n      sload\n      swap1\n      pop\n        /* \"contracts/MyStructContract.sol\":655:675  return people.length */\n      swap1\n      pop\n        /* \"contracts/MyStructContract.sol\":593:683  function getPeopleCount() public view returns(uint){... */\n      swap1\n      jump\t// out\n        /* \"#utility.yul\":7:82   */\n    tag_45:\n        /* \"#utility.yul\":40:46   */\n      0x00\n        /* \"#utility.yul\":73:75   */\n      0x40\n        /* \"#utility.yul\":67:76   */\n      mload\n        /* \"#utility.yul\":57:76   */\n      swap1\n      pop\n        /* \"#utility.yul\":7:82   */\n      swap1\n      jump\t// out\n        /* \"#utility.yul\":88:205   */\n    tag_46:\n        /* \"#utility.yul\":197:198   */\n      0x00\n        /* \"#utility.yul\":194:195   */\n      dup1\n        /* \"#utility.yul\":187:199   */\n      revert\n        /* \"#utility.yul\":211:328   */\n    tag_47:\n        /* \"#utility.yul\":320:321   */\n      0x00\n        /* \"#utility.yul\":317:318   */\n      dup1\n        /* \"#utility.yul\":310:322   */\n      revert\n        /* \"#utility.yul\":334:411   */\n    tag_48:\n        /* \"#utility.yul\":371:378   */\n      0x00\n        /* \"#utility.yul\":400:405   */\n      dup2\n        /* \"#utility.yul\":389:405   */\n      swap1\n      pop\n        /* \"#utility.yul\":334:411   */\n      swap2\n      swap1\n      pop\n      jump\t// out\n        /* \"#utility.yul\":417:539   */\n    tag_49:\n        /* \"#utility.yul\":490:514   */\n      tag_88\n        /* \"#utility.yul\":508:513   */\n      dup2\n        /* \"#utility.yul\":490:514   */\n      tag_48\n      jump\t// in\n    tag_88:\n        /* \"#utility.yul\":483:488   */\n      dup2\n        /* \"#utility.yul\":480:515   */\n      eq\n        /* \"#utility.yul\":470:533   */\n      tag_89\n      jumpi\n        /* \"#utility.yul\":529:530   */\n      0x00\n        /* \"#utility.yul\":526:527   */\n      dup1\n        /* \"#utility.yul\":519:531   */\n      revert\n        /* \"#utility.yul\":470:533   */\n    tag_89:\n        /* \"#utility.yul\":417:539   */\n      pop\n      jump\t// out\n        /* \"#utility.yul\":545:684   */\n    tag_50:\n        /* \"#utility.yul\":591:596   */\n      0x00\n        /* \"#utility.yul\":629:635   */\n      dup2\n        /* \"#utility.yul\":616:636   */\n      calldataload\n        /* \"#utility.yul\":607:636   */\n      swap1\n      pop\n        /* \"#utility.yul\":645:678   */\n      tag_91\n        /* \"#utility.yul\":672:677   */\n      dup2\n        /* \"#utility.yul\":645:678   */\n      tag_49\n      jump\t// in\n    tag_91:\n        /* \"#utility.yul\":545:684   */\n      swap3\n      swap2\n      pop\n      pop\n      jump\t// out\n        /* \"#utility.yul\":690:1019   */\n    tag_9:\n        /* \"#utility.yul\":749:755   */\n      0x00\n        /* \"#utility.yul\":798:800   */\n      0x20\n        /* \"#utility.yul\":786:795   */\n      dup3\n        /* \"#utility.yul\":777:784   */\n      dup5\n        /* \"#utility.yul\":773:796   */\n      sub\n        /* \"#utility.yul\":769:801   */\n      slt\n        /* \"#utility.yul\":766:885   */\n      iszero\n      tag_93\n      jumpi\n        /* \"#utility.yul\":804:883   */\n      tag_94\n      tag_46\n      jump\t// in\n    tag_94:\n        /* \"#utility.yul\":766:885   */\n    tag_93:\n        /* \"#utility.yul\":924:925   */\n      0x00\n        /* \"#utility.yul\":949:1002   */\n      tag_95\n        /* \"#utility.yul\":994:1001   */\n      dup5\n        /* \"#utility.yul\":985:991   */\n      dup3\n        /* \"#utility.yul\":974:983   */\n      dup6\n        /* \"#utility.yul\":970:992   */\n      add\n        /* \"#utility.yul\":949:1002   */\n      tag_50\n      jump\t// in\n    tag_95:\n        /* \"#utility.yul\":939:1002   */\n      swap2\n      pop\n        /* \"#utility.yul\":895:1012   */\n      pop\n        /* \"#utility.yul\":690:1019   */\n      swap3\n      swap2\n      pop\n      pop\n      jump\t// out\n        /* \"#utility.yul\":1025:1124   */\n    tag_51:\n        /* \"#utility.yul\":1077:1083   */\n      0x00\n        /* \"#utility.yul\":1111:1116   */\n      dup2\n        /* \"#utility.yul\":1105:1117   */\n      mload\n        /* \"#utility.yul\":1095:1117   */\n      swap1\n      pop\n        /* \"#utility.yul\":1025:1124   */\n      swap2\n      swap1\n      pop\n      jump\t// out\n        /* \"#utility.yul\":1130:1299   */\n    tag_52:\n        /* \"#utility.yul\":1214:1225   */\n      0x00\n        /* \"#utility.yul\":1248:1254   */\n      dup3\n        /* \"#utility.yul\":1243:1246   */\n      dup3\n        /* \"#utility.yul\":1236:1255   */\n      mstore\n        /* \"#utility.yul\":1288:1292   */\n      0x20\n        /* \"#utility.yul\":1283:1286   */\n      dup3\n        /* \"#utility.yul\":1279:1293   */\n      add\n        /* \"#utility.yul\":1264:1293   */\n      swap1\n      pop\n        /* \"#utility.yul\":1130:1299   */\n      swap3\n      swap2\n      pop\n      pop\n      jump\t// out\n        /* \"#utility.yul\":1305:1444   */\n    tag_53:\n        /* \"#utility.yul\":1394:1400   */\n      dup3\n        /* \"#utility.yul\":1389:1392   */\n      dup2\n        /* \"#utility.yul\":1384:1387   */\n      dup4\n        /* \"#utility.yul\":1378:1401   */\n      mcopy\n        /* \"#utility.yul\":1435:1436   */\n      0x00\n        /* \"#utility.yul\":1426:1432   */\n      dup4\n        /* \"#utility.yul\":1421:1424   */\n      dup4\n        /* \"#utility.yul\":1417:1433   */\n      add\n        /* \"#utility.yul\":1410:1437   */\n      mstore\n        /* \"#utility.yul\":1305:1444   */\n      pop\n      pop\n      pop\n      jump\t// out\n        /* \"#utility.yul\":1450:1552   */\n    tag_54:\n        /* \"#utility.yul\":1491:1497   */\n      0x00\n        /* \"#utility.yul\":1542:1544   */\n      0x1f\n        /* \"#utility.yul\":1538:1545   */\n      not\n        /* \"#utility.yul\":1533:1535   */\n      0x1f\n        /* \"#utility.yul\":1526:1531   */\n      dup4\n        /* \"#utility.yul\":1522:1536   */\n      add\n        /* \"#utility.yul\":1518:1546   */\n      and\n        /* \"#utility.yul\":1508:1546   */\n      swap1\n      pop\n        /* \"#utility.yul\":1450:1552   */\n      swap2\n      swap1\n      pop\n      jump\t// out\n        /* \"#utility.yul\":1558:1935   */\n    tag_55:\n        /* \"#utility.yul\":1646:1649   */\n      0x00\n        /* \"#utility.yul\":1674:1713   */\n      tag_101\n        /* \"#utility.yul\":1707:1712   */\n      dup3\n        /* \"#utility.yul\":1674:1713   */\n      tag_51\n      jump\t// in\n    tag_101:\n        /* \"#utility.yul\":1729:1800   */\n      tag_102\n        /* \"#utility.yul\":1793:1799   */\n      dup2\n        /* \"#utility.yul\":1788:1791   */\n      dup6\n        /* \"#utility.yul\":1729:1800   */\n      tag_52\n      jump\t// in\n    tag_102:\n        /* \"#utility.yul\":1722:1800   */\n      swap4\n      pop\n        /* \"#utility.yul\":1809:1874   */\n      tag_103\n        /* \"#utility.yul\":1867:1873   */\n      dup2\n        /* \"#utility.yul\":1862:1865   */\n      dup6\n        /* \"#utility.yul\":1855:1859   */\n      0x20\n        /* \"#utility.yul\":1848:1853   */\n      dup7\n        /* \"#utility.yul\":1844:1860   */\n      add\n        /* \"#utility.yul\":1809:1874   */\n      tag_53\n      jump\t// in\n    tag_103:\n        /* \"#utility.yul\":1899:1928   */\n      tag_104\n        /* \"#utility.yul\":1921:1927   */\n      dup2\n        /* \"#utility.yul\":1899:1928   */\n      tag_54\n      jump\t// in\n    tag_104:\n        /* \"#utility.yul\":1894:1897   */\n      dup5\n        /* \"#utility.yul\":1890:1929   */\n      add\n        /* \"#utility.yul\":1883:1929   */\n      swap2\n      pop\n        /* \"#utility.yul\":1650:1935   */\n      pop\n        /* \"#utility.yul\":1558:1935   */\n      swap3\n      swap2\n      pop\n      pop\n      jump\t// out\n        /* \"#utility.yul\":1941:2254   */\n    tag_12:\n        /* \"#utility.yul\":2054:2058   */\n      0x00\n        /* \"#utility.yul\":2092:2094   */\n      0x20\n        /* \"#utility.yul\":2081:2090   */\n      dup3\n        /* \"#utility.yul\":2077:2095   */\n      add\n        /* \"#utility.yul\":2069:2095   */\n      swap1\n      pop\n        /* \"#utility.yul\":2141:2150   */\n      dup2\n        /* \"#utility.yul\":2135:2139   */\n      dup2\n        /* \"#utility.yul\":2131:2151   */\n      sub\n        /* \"#utility.yul\":2127:2128   */\n      0x00\n        /* \"#utility.yul\":2116:2125   */\n      dup4\n        /* \"#utility.yul\":2112:2129   */\n      add\n        /* \"#utility.yul\":2105:2152   */\n      mstore\n        /* \"#utility.yul\":2169:2247   */\n      tag_106\n        /* \"#utility.yul\":2242:2246   */\n      dup2\n        /* \"#utility.yul\":2233:2239   */\n      dup5\n        /* \"#utility.yul\":2169:2247   */\n      tag_55\n      jump\t// in\n    tag_106:\n        /* \"#utility.yul\":2161:2247   */\n      swap1\n      pop\n        /* \"#utility.yul\":1941:2254   */\n      swap3\n      swap2\n      pop\n      pop\n      jump\t// out\n        /* \"#utility.yul\":2260:2378   */\n    tag_56:\n        /* \"#utility.yul\":2347:2371   */\n      tag_108\n        /* \"#utility.yul\":2365:2370   */\n      dup2\n        /* \"#utility.yul\":2347:2371   */\n      tag_48\n      jump\t// in\n    tag_108:\n        /* \"#utility.yul\":2342:2345   */\n      dup3\n        /* \"#utility.yul\":2335:2372   */\n      mstore\n        /* \"#utility.yul\":2260:2378   */\n      pop\n      pop\n      jump\t// out\n        /* \"#utility.yul\":2384:2606   */\n    tag_17:\n        /* \"#utility.yul\":2477:2481   */\n      0x00\n        /* \"#utility.yul\":2515:2517   */\n      0x20\n        /* \"#utility.yul\":2504:2513   */\n      dup3\n        /* \"#utility.yul\":2500:2518   */\n      add\n        /* \"#utility.yul\":2492:2518   */\n      swap1\n      pop\n        /* \"#utility.yul\":2528:2599   */\n      tag_110\n        /* \"#utility.yul\":2596:2597   */\n      0x00\n        /* \"#utility.yul\":2585:2594   */\n      dup4\n        /* \"#utility.yul\":2581:2598   */\n      add\n        /* \"#utility.yul\":2572:2578   */\n      dup5\n        /* \"#utility.yul\":2528:2599   */\n      tag_56\n      jump\t// in\n    tag_110:\n        /* \"#utility.yul\":2384:2606   */\n      swap3\n      swap2\n      pop\n      pop\n      jump\t// out\n        /* \"#utility.yul\":2612:2729   */\n    tag_57:\n        /* \"#utility.yul\":2721:2722   */\n      0x00\n        /* \"#utility.yul\":2718:2719   */\n      dup1\n        /* \"#utility.yul\":2711:2723   */\n      revert\n        /* \"#utility.yul\":2735:2852   */\n    tag_58:\n        /* \"#utility.yul\":2844:2845   */\n      0x00\n        /* \"#utility.yul\":2841:2842   */\n      dup1\n        /* \"#utility.yul\":2834:2846   */\n      revert\n        /* \"#utility.yul\":2858:3038   */\n    tag_59:\n        /* \"#utility.yul\":2906:2983   */\n      0x4e487b7100000000000000000000000000000000000000000000000000000000\n        /* \"#utility.yul\":2903:2904   */\n      0x00\n        /* \"#utility.yul\":2896:2984   */\n      mstore\n        /* \"#utility.yul\":3003:3007   */\n      0x41\n        /* \"#utility.yul\":3000:3001   */\n      0x04\n        /* \"#utility.yul\":2993:3008   */\n      mstore\n        /* \"#utility.yul\":3027:3031   */\n      0x24\n        /* \"#utility.yul\":3024:3025   */\n      0x00\n        /* \"#utility.yul\":3017:3032   */\n      revert\n        /* \"#utility.yul\":3044:3325   */\n    tag_60:\n        /* \"#utility.yul\":3127:3154   */\n      tag_115\n        /* \"#utility.yul\":3149:3153   */\n      dup3\n        /* \"#utility.yul\":3127:3154   */\n      tag_54\n      jump\t// in\n    tag_115:\n        /* \"#utility.yul\":3119:3125   */\n      dup2\n        /* \"#utility.yul\":3115:3155   */\n      add\n        /* \"#utility.yul\":3257:3263   */\n      dup2\n        /* \"#utility.yul\":3245:3255   */\n      dup2\n        /* \"#utility.yul\":3242:3264   */\n      lt\n        /* \"#utility.yul\":3221:3239   */\n      0xffffffffffffffff\n        /* \"#utility.yul\":3209:3219   */\n      dup3\n        /* \"#utility.yul\":3206:3240   */\n      gt\n        /* \"#utility.yul\":3203:3265   */\n      or\n        /* \"#utility.yul\":3200:3288   */\n      iszero\n      tag_116\n      jumpi\n        /* \"#utility.yul\":3268:3286   */\n      tag_117\n      tag_59\n      jump\t// in\n    tag_117:\n        /* \"#utility.yul\":3200:3288   */\n    tag_116:\n        /* \"#utility.yul\":3308:3318   */\n      dup1\n        /* \"#utility.yul\":3304:3306   */\n      0x40\n        /* \"#utility.yul\":3297:3319   */\n      mstore\n        /* \"#utility.yul\":3087:3325   */\n      pop\n        /* \"#utility.yul\":3044:3325   */\n      pop\n      pop\n      jump\t// out\n        /* \"#utility.yul\":3331:3460   */\n    tag_61:\n        /* \"#utility.yul\":3365:3371   */\n      0x00\n        /* \"#utility.yul\":3392:3412   */\n      tag_119\n      tag_45\n      jump\t// in\n    tag_119:\n        /* \"#utility.yul\":3382:3412   */\n      swap1\n      pop\n        /* \"#utility.yul\":3421:3454   */\n      tag_120\n        /* \"#utility.yul\":3449:3453   */\n      dup3\n        /* \"#utility.yul\":3441:3447   */\n      dup3\n        /* \"#utility.yul\":3421:3454   */\n      tag_60\n      jump\t// in\n    tag_120:\n        /* \"#utility.yul\":3331:3460   */\n      swap2\n      swap1\n      pop\n      jump\t// out\n        /* \"#utility.yul\":3466:3774   */\n    tag_62:\n        /* \"#utility.yul\":3528:3532   */\n      0x00\n        /* \"#utility.yul\":3618:3636   */\n      0xffffffffffffffff\n        /* \"#utility.yul\":3610:3616   */\n      dup3\n        /* \"#utility.yul\":3607:3637   */\n      gt\n        /* \"#utility.yul\":3604:3660   */\n      iszero\n      tag_122\n      jumpi\n        /* \"#utility.yul\":3640:3658   */\n      tag_123\n      tag_59\n      jump\t// in\n    tag_123:\n        /* \"#utility.yul\":3604:3660   */\n    tag_122:\n        /* \"#utility.yul\":3678:3707   */\n      tag_124\n        /* \"#utility.yul\":3700:3706   */\n      dup3\n        /* \"#utility.yul\":3678:3707   */\n      tag_54\n      jump\t// in\n    tag_124:\n        /* \"#utility.yul\":3670:3707   */\n      swap1\n      pop\n        /* \"#utility.yul\":3762:3766   */\n      0x20\n        /* \"#utility.yul\":3756:3760   */\n      dup2\n        /* \"#utility.yul\":3752:3767   */\n      add\n        /* \"#utility.yul\":3744:3767   */\n      swap1\n      pop\n        /* \"#utility.yul\":3466:3774   */\n      swap2\n      swap1\n      pop\n      jump\t// out\n        /* \"#utility.yul\":3780:3928   */\n    tag_63:\n        /* \"#utility.yul\":3878:3884   */\n      dup3\n        /* \"#utility.yul\":3873:3876   */\n      dup2\n        /* \"#utility.yul\":3868:3871   */\n      dup4\n        /* \"#utility.yul\":3855:3885   */\n      calldatacopy\n        /* \"#utility.yul\":3919:3920   */\n      0x00\n        /* \"#utility.yul\":3910:3916   */\n      dup4\n        /* \"#utility.yul\":3905:3908   */\n      dup4\n        /* \"#utility.yul\":3901:3917   */\n      add\n        /* \"#utility.yul\":3894:3921   */\n      mstore\n        /* \"#utility.yul\":3780:3928   */\n      pop\n      pop\n      pop\n      jump\t// out\n        /* \"#utility.yul\":3934:4359   */\n    tag_64:\n        /* \"#utility.yul\":4012:4017   */\n      0x00\n        /* \"#utility.yul\":4037:4103   */\n      tag_127\n        /* \"#utility.yul\":4053:4102   */\n      tag_128\n        /* \"#utility.yul\":4095:4101   */\n      dup5\n        /* \"#utility.yul\":4053:4102   */\n      tag_62\n      jump\t// in\n    tag_128:\n        /* \"#utility.yul\":4037:4103   */\n      tag_61\n      jump\t// in\n    tag_127:\n        /* \"#utility.yul\":4028:4103   */\n      swap1\n      pop\n        /* \"#utility.yul\":4126:4132   */\n      dup3\n        /* \"#utility.yul\":4119:4124   */\n      dup2\n        /* \"#utility.yul\":4112:4133   */\n      mstore\n        /* \"#utility.yul\":4164:4168   */\n      0x20\n        /* \"#utility.yul\":4157:4162   */\n      dup2\n        /* \"#utility.yul\":4153:4169   */\n      add\n        /* \"#utility.yul\":4202:4205   */\n      dup5\n        /* \"#utility.yul\":4193:4199   */\n      dup5\n        /* \"#utility.yul\":4188:4191   */\n      dup5\n        /* \"#utility.yul\":4184:4200   */\n      add\n        /* \"#utility.yul\":4181:4206   */\n      gt\n        /* \"#utility.yul\":4178:4290   */\n      iszero\n      tag_129\n      jumpi\n        /* \"#utility.yul\":4209:4288   */\n      tag_130\n      tag_58\n      jump\t// in\n    tag_130:\n        /* \"#utility.yul\":4178:4290   */\n    tag_129:\n        /* \"#utility.yul\":4299:4353   */\n      tag_131\n        /* \"#utility.yul\":4346:4352   */\n      dup5\n        /* \"#utility.yul\":4341:4344   */\n      dup3\n        /* \"#utility.yul\":4336:4339   */\n      dup6\n        /* \"#utility.yul\":4299:4353   */\n      tag_63\n      jump\t// in\n    tag_131:\n        /* \"#utility.yul\":4018:4359   */\n      pop\n        /* \"#utility.yul\":3934:4359   */\n      swap4\n      swap3\n      pop\n      pop\n      pop\n      jump\t// out\n        /* \"#utility.yul\":4379:4719   */\n    tag_65:\n        /* \"#utility.yul\":4435:4440   */\n      0x00\n        /* \"#utility.yul\":4484:4487   */\n      dup3\n        /* \"#utility.yul\":4477:4481   */\n      0x1f\n        /* \"#utility.yul\":4469:4475   */\n      dup4\n        /* \"#utility.yul\":4465:4482   */\n      add\n        /* \"#utility.yul\":4461:4488   */\n      slt\n        /* \"#utility.yul\":4451:4573   */\n      tag_133\n      jumpi\n        /* \"#utility.yul\":4492:4571   */\n      tag_134\n      tag_57\n      jump\t// in\n    tag_134:\n        /* \"#utility.yul\":4451:4573   */\n    tag_133:\n        /* \"#utility.yul\":4609:4615   */\n      dup2\n        /* \"#utility.yul\":4596:4616   */\n      calldataload\n        /* \"#utility.yul\":4634:4713   */\n      tag_135\n        /* \"#utility.yul\":4709:4712   */\n      dup5\n        /* \"#utility.yul\":4701:4707   */\n      dup3\n        /* \"#utility.yul\":4694:4698   */\n      0x20\n        /* \"#utility.yul\":4686:4692   */\n      dup7\n        /* \"#utility.yul\":4682:4699   */\n      add\n        /* \"#utility.yul\":4634:4713   */\n      tag_64\n      jump\t// in\n    tag_135:\n        /* \"#utility.yul\":4625:4713   */\n      swap2\n      pop\n        /* \"#utility.yul\":4441:4719   */\n      pop\n        /* \"#utility.yul\":4379:4719   */\n      swap3\n      swap2\n      pop\n      pop\n      jump\t// out\n        /* \"#utility.yul\":4725:5379   */\n    tag_20:\n        /* \"#utility.yul\":4803:4809   */\n      0x00\n        /* \"#utility.yul\":4811:4817   */\n      dup1\n        /* \"#utility.yul\":4860:4862   */\n      0x40\n        /* \"#utility.yul\":4848:4857   */\n      dup4\n        /* \"#utility.yul\":4839:4846   */\n      dup6\n        /* \"#utility.yul\":4835:4858   */\n      sub\n        /* \"#utility.yul\":4831:4863   */\n      slt\n        /* \"#utility.yul\":4828:4947   */\n      iszero\n      tag_137\n      jumpi\n        /* \"#utility.yul\":4866:4945   */\n      tag_138\n      tag_46\n      jump\t// in\n    tag_138:\n        /* \"#utility.yul\":4828:4947   */\n    tag_137:\n        /* \"#utility.yul\":5014:5015   */\n      0x00\n        /* \"#utility.yul\":5003:5012   */\n      dup4\n        /* \"#utility.yul\":4999:5016   */\n      add\n        /* \"#utility.yul\":4986:5017   */\n      calldataload\n        /* \"#utility.yul\":5044:5062   */\n      0xffffffffffffffff\n        /* \"#utility.yul\":5036:5042   */\n      dup2\n        /* \"#utility.yul\":5033:5063   */\n      gt\n        /* \"#utility.yul\":5030:5147   */\n      iszero\n      tag_139\n      jumpi\n        /* \"#utility.yul\":5066:5145   */\n      tag_140\n      tag_47\n      jump\t// in\n    tag_140:\n        /* \"#utility.yul\":5030:5147   */\n    tag_139:\n        /* \"#utility.yul\":5171:5234   */\n      tag_141\n        /* \"#utility.yul\":5226:5233   */\n      dup6\n        /* \"#utility.yul\":5217:5223   */\n      dup3\n        /* \"#utility.yul\":5206:5215   */\n      dup7\n        /* \"#utility.yul\":5202:5224   */\n      add\n        /* \"#utility.yul\":5171:5234   */\n      tag_65\n      jump\t// in\n    tag_141:\n        /* \"#utility.yul\":5161:5234   */\n      swap3\n      pop\n        /* \"#utility.yul\":4957:5244   */\n      pop\n        /* \"#utility.yul\":5283:5285   */\n      0x20\n        /* \"#utility.yul\":5309:5362   */\n      tag_142\n        /* \"#utility.yul\":5354:5361   */\n      dup6\n        /* \"#utility.yul\":5345:5351   */\n      dup3\n        /* \"#utility.yul\":5334:5343   */\n      dup7\n        /* \"#utility.yul\":5330:5352   */\n      add\n        /* \"#utility.yul\":5309:5362   */\n      tag_50\n      jump\t// in\n    tag_142:\n        /* \"#utility.yul\":5299:5362   */\n      swap2\n      pop\n        /* \"#utility.yul\":5254:5372   */\n      pop\n        /* \"#utility.yul\":4725:5379   */\n      swap3\n      pop\n      swap3\n      swap1\n      pop\n      jump\t// out\n        /* \"#utility.yul\":5385:5565   */\n    tag_28:\n        /* \"#utility.yul\":5433:5510   */\n      0x4e487b7100000000000000000000000000000000000000000000000000000000\n        /* \"#utility.yul\":5430:5431   */\n      0x00\n        /* \"#utility.yul\":5423:5511   */\n      mstore\n        /* \"#utility.yul\":5530:5534   */\n      0x32\n        /* \"#utility.yul\":5527:5528   */\n      0x04\n        /* \"#utility.yul\":5520:5535   */\n      mstore\n        /* \"#utility.yul\":5554:5558   */\n      0x24\n        /* \"#utility.yul\":5551:5552   */\n      0x00\n        /* \"#utility.yul\":5544:5559   */\n      revert\n        /* \"#utility.yul\":5571:5751   */\n    tag_66:\n        /* \"#utility.yul\":5619:5696   */\n      0x4e487b7100000000000000000000000000000000000000000000000000000000\n        /* \"#utility.yul\":5616:5617   */\n      0x00\n        /* \"#utility.yul\":5609:5697   */\n      mstore\n        /* \"#utility.yul\":5716:5720   */\n      0x22\n        /* \"#utility.yul\":5713:5714   */\n      0x04\n        /* \"#utility.yul\":5706:5721   */\n      mstore\n        /* \"#utility.yul\":5740:5744   */\n      0x24\n        /* \"#utility.yul\":5737:5738   */\n      0x00\n        /* \"#utility.yul\":5730:5745   */\n      revert\n        /* \"#utility.yul\":5757:6077   */\n    tag_31:\n        /* \"#utility.yul\":5801:5807   */\n      0x00\n        /* \"#utility.yul\":5838:5839   */\n      0x02\n        /* \"#utility.yul\":5832:5836   */\n      dup3\n        /* \"#utility.yul\":5828:5840   */\n      div\n        /* \"#utility.yul\":5818:5840   */\n      swap1\n      pop\n        /* \"#utility.yul\":5885:5886   */\n      0x01\n        /* \"#utility.yul\":5879:5883   */\n      dup3\n        /* \"#utility.yul\":5875:5887   */\n      and\n        /* \"#utility.yul\":5906:5924   */\n      dup1\n        /* \"#utility.yul\":5896:5977   */\n      tag_146\n      jumpi\n        /* \"#utility.yul\":5962:5966   */\n      0x7f\n        /* \"#utility.yul\":5954:5960   */\n      dup3\n        /* \"#utility.yul\":5950:5967   */\n      and\n        /* \"#utility.yul\":5940:5967   */\n      swap2\n      pop\n        /* \"#utility.yul\":5896:5977   */\n    tag_146:\n        /* \"#utility.yul\":6024:6026   */\n      0x20\n        /* \"#utility.yul\":6016:6022   */\n      dup3\n        /* \"#utility.yul\":6013:6027   */\n      lt\n        /* \"#utility.yul\":5993:6011   */\n      dup2\n        /* \"#utility.yul\":5990:6028   */\n      sub\n        /* \"#utility.yul\":5987:6071   */\n      tag_147\n      jumpi\n        /* \"#utility.yul\":6043:6061   */\n      tag_148\n      tag_66\n      jump\t// in\n    tag_148:\n        /* \"#utility.yul\":5987:6071   */\n    tag_147:\n        /* \"#utility.yul\":5808:6077   */\n      pop\n        /* \"#utility.yul\":5757:6077   */\n      swap2\n      swap1\n      pop\n      jump\t// out\n        /* \"#utility.yul\":6083:6224   */\n    tag_67:\n        /* \"#utility.yul\":6132:6136   */\n      0x00\n        /* \"#utility.yul\":6155:6158   */\n      dup2\n        /* \"#utility.yul\":6147:6158   */\n      swap1\n      pop\n        /* \"#utility.yul\":6178:6181   */\n      dup2\n        /* \"#utility.yul\":6175:6176   */\n      0x00\n        /* \"#utility.yul\":6168:6182   */\n      mstore\n        /* \"#utility.yul\":6212:6216   */\n      0x20\n        /* \"#utility.yul\":6209:6210   */\n      0x00\n        /* \"#utility.yul\":6199:6217   */\n      keccak256\n        /* \"#utility.yul\":6191:6217   */\n      swap1\n      pop\n        /* \"#utility.yul\":6083:6224   */\n      swap2\n      swap1\n      pop\n      jump\t// out\n        /* \"#utility.yul\":6230:6323   */\n    tag_68:\n        /* \"#utility.yul\":6267:6273   */\n      0x00\n        /* \"#utility.yul\":6314:6316   */\n      0x20\n        /* \"#utility.yul\":6309:6311   */\n      0x1f\n        /* \"#utility.yul\":6302:6307   */\n      dup4\n        /* \"#utility.yul\":6298:6312   */\n      add\n        /* \"#utility.yul\":6294:6317   */\n      div\n        /* \"#utility.yul\":6284:6317   */\n      swap1\n      pop\n        /* \"#utility.yul\":6230:6323   */\n      swap2\n      swap1\n      pop\n      jump\t// out\n        /* \"#utility.yul\":6329:6436   */\n    tag_69:\n        /* \"#utility.yul\":6373:6381   */\n      0x00\n        /* \"#utility.yul\":6423:6428   */\n      dup3\n        /* \"#utility.yul\":6417:6421   */\n      dup3\n        /* \"#utility.yul\":6413:6429   */\n      shl\n        /* \"#utility.yul\":6392:6429   */\n      swap1\n      pop\n        /* \"#utility.yul\":6329:6436   */\n      swap3\n      swap2\n      pop\n      pop\n      jump\t// out\n        /* \"#utility.yul\":6442:6835   */\n    tag_70:\n        /* \"#utility.yul\":6511:6517   */\n      0x00\n        /* \"#utility.yul\":6561:6562   */\n      0x08\n        /* \"#utility.yul\":6549:6559   */\n      dup4\n        /* \"#utility.yul\":6545:6563   */\n      mul\n        /* \"#utility.yul\":6584:6681   */\n      tag_153\n        /* \"#utility.yul\":6614:6680   */\n      0xffffffffffffffffffffffffffffffffffffffffffffffffffffffffffffffff\n        /* \"#utility.yul\":6603:6612   */\n      dup3\n        /* \"#utility.yul\":6584:6681   */\n      tag_69\n      jump\t// in\n    tag_153:\n        /* \"#utility.yul\":6702:6741   */\n      tag_154\n        /* \"#utility.yul\":6732:6740   */\n      dup7\n        /* \"#utility.yul\":6721:6730   */\n      dup4\n        /* \"#utility.yul\":6702:6741   */\n      tag_69\n      jump\t// in\n    tag_154:\n        /* \"#utility.yul\":6690:6741   */\n      swap6\n      pop\n        /* \"#utility.yul\":6774:6778   */\n      dup1\n        /* \"#utility.yul\":6770:6779   */\n      not\n        /* \"#utility.yul\":6763:6768   */\n      dup5\n        /* \"#utility.yul\":6759:6780   */\n      and\n        /* \"#utility.yul\":6750:6780   */\n      swap4\n      pop\n        /* \"#utility.yul\":6823:6827   */\n      dup1\n        /* \"#utility.yul\":6813:6821   */\n      dup7\n        /* \"#utility.yul\":6809:6828   */\n      and\n        /* \"#utility.yul\":6802:6807   */\n      dup5\n        /* \"#utility.yul\":6799:6829   */\n      or\n        /* \"#utility.yul\":6789:6829   */\n      swap3\n      pop\n        /* \"#utility.yul\":6518:6835   */\n      pop\n      pop\n        /* \"#utility.yul\":6442:6835   */\n      swap4\n      swap3\n      pop\n      pop\n      pop\n      jump\t// out\n        /* \"#utility.yul\":6841:6901   */\n    tag_71:\n        /* \"#utility.yul\":6869:6872   */\n      0x00\n        /* \"#utility.yul\":6890:6895   */\n      dup2\n        /* \"#utility.yul\":6883:6895   */\n      swap1\n      pop\n        /* \"#utility.yul\":6841:6901   */\n      swap2\n      swap1\n      pop\n      jump\t// out\n        /* \"#utility.yul\":6907:7049   */\n    tag_72:\n        /* \"#utility.yul\":6957:6966   */\n      0x00\n        /* \"#utility.yul\":6990:7043   */\n      tag_157\n        /* \"#utility.yul\":7008:7042   */\n      tag_158\n        /* \"#utility.yul\":7017:7041   */\n      tag_159\n        /* \"#utility.yul\":7035:7040   */\n      dup5\n        /* \"#utility.yul\":7017:7041   */\n      tag_48\n      jump\t// in\n    tag_159:\n        /* \"#utility.yul\":7008:7042   */\n      tag_71\n      jump\t// in\n    tag_158:\n        /* \"#utility.yul\":6990:7043   */\n      tag_48\n      jump\t// in\n    tag_157:\n        /* \"#utility.yul\":6977:7043   */\n      swap1\n      pop\n        /* \"#utility.yul\":6907:7049   */\n      swap2\n      swap1\n      pop\n      jump\t// out\n        /* \"#utility.yul\":7055:7130   */\n    tag_73:\n        /* \"#utility.yul\":7098:7101   */\n      0x00\n        /* \"#utility.yul\":7119:7124   */\n      dup2\n        /* \"#utility.yul\":7112:7124   */\n      swap1\n      pop\n        /* \"#utility.yul\":7055:7130   */\n      swap2\n      swap1\n      pop\n      jump\t// out\n        /* \"#utility.yul\":7136:7405   */\n    tag_74:\n        /* \"#utility.yul\":7246:7285   */\n      tag_162\n        /* \"#utility.yul\":7277:7284   */\n      dup4\n        /* \"#utility.yul\":7246:7285   */\n      tag_72\n      jump\t// in\n    tag_162:\n        /* \"#utility.yul\":7307:7398   */\n      tag_163\n        /* \"#utility.yul\":7356:7397   */\n      tag_164\n        /* \"#utility.yul\":7380:7396   */\n      dup3\n        /* \"#utility.yul\":7356:7397   */\n      tag_73\n      jump\t// in\n    tag_164:\n        /* \"#utility.yul\":7348:7354   */\n      dup5\n        /* \"#utility.yul\":7341:7345   */\n      dup5\n        /* \"#utility.yul\":7335:7346   */\n      sload\n        /* \"#utility.yul\":7307:7398   */\n      tag_70\n      jump\t// in\n    tag_163:\n        /* \"#utility.yul\":7301:7305   */\n      dup3\n        /* \"#utility.yul\":7294:7399   */\n      sstore\n        /* \"#utility.yul\":7212:7405   */\n      pop\n        /* \"#utility.yul\":7136:7405   */\n      pop\n      pop\n      pop\n      jump\t// out\n        /* \"#utility.yul\":7411:7484   */\n    tag_75:\n        /* \"#utility.yul\":7456:7459   */\n      0x00\n        /* \"#utility.yul\":7411:7484   */\n      swap1\n      jump\t// out\n        /* \"#utility.yul\":7490:7679   */\n    tag_76:\n        /* \"#utility.yul\":7567:7599   */\n      tag_167\n      tag_75\n      jump\t// in\n    tag_167:\n        /* \"#utility.yul\":7608:7673   */\n      tag_168\n        /* \"#utility.yul\":7666:7672   */\n      dup2\n        /* \"#utility.yul\":7658:7664   */\n      dup5\n        /* \"#utility.yul\":7652:7656   */\n      dup5\n        /* \"#utility.yul\":7608:7673   */\n      tag_74\n      jump\t// in\n    tag_168:\n        /* \"#utility.yul\":7543:7679   */\n      pop\n        /* \"#utility.yul\":7490:7679   */\n      pop\n      pop\n      jump\t// out\n        /* \"#utility.yul\":7685:7871   */\n    tag_77:\n        /* \"#utility.yul\":7745:7865   */\n    tag_170:\n        /* \"#utility.yul\":7762:7765   */\n      dup2\n        /* \"#utility.yul\":7755:7760   */\n      dup2\n        /* \"#utility.yul\":7752:7766   */\n      lt\n        /* \"#utility.yul\":7745:7865   */\n      iszero\n      tag_172\n      jumpi\n        /* \"#utility.yul\":7816:7855   */\n      tag_173\n        /* \"#utility.yul\":7853:7854   */\n      0x00\n        /* \"#utility.yul\":7846:7851   */\n      dup3\n        /* \"#utility.yul\":7816:7855   */\n      tag_76\n      jump\t// in\n    tag_173:\n        /* \"#utility.yul\":7789:7790   */\n      0x01\n        /* \"#utility.yul\":7782:7787   */\n      dup2\n        /* \"#utility.yul\":7778:7791   */\n      add\n        /* \"#utility.yul\":7769:7791   */\n      swap1\n      pop\n        /* \"#utility.yul\":7745:7865   */\n      jump(tag_170)\n    tag_172:\n        /* \"#utility.yul\":7685:7871   */\n      pop\n      pop\n      jump\t// out\n        /* \"#utility.yul\":7877:8420   */\n    tag_78:\n        /* \"#utility.yul\":7978:7980   */\n      0x1f\n        /* \"#utility.yul\":7973:7976   */\n      dup3\n        /* \"#utility.yul\":7970:7981   */\n      gt\n        /* \"#utility.yul\":7967:8413   */\n      iszero\n      tag_175\n      jumpi\n        /* \"#utility.yul\":8012:8050   */\n      tag_176\n        /* \"#utility.yul\":8044:8049   */\n      dup2\n        /* \"#utility.yul\":8012:8050   */\n      tag_67\n      jump\t// in\n    tag_176:\n        /* \"#utility.yul\":8096:8125   */\n      tag_177\n        /* \"#utility.yul\":8114:8124   */\n      dup5\n        /* \"#utility.yul\":8096:8125   */\n      tag_68\n      jump\t// in\n    tag_177:\n        /* \"#utility.yul\":8086:8094   */\n      dup2\n        /* \"#utility.yul\":8082:8126   */\n      add\n        /* \"#utility.yul\":8279:8281   */\n      0x20\n        /* \"#utility.yul\":8267:8277   */\n      dup6\n        /* \"#utility.yul\":8264:8282   */\n      lt\n        /* \"#utility.yul\":8261:8310   */\n      iszero\n      tag_178\n      jumpi\n        /* \"#utility.yul\":8300:8308   */\n      dup2\n        /* \"#utility.yul\":8285:8308   */\n      swap1\n      pop\n        /* \"#utility.yul\":8261:8310   */\n    tag_178:\n        /* \"#utility.yul\":8323:8403   */\n      tag_179\n        /* \"#utility.yul\":8379:8401   */\n      tag_180\n        /* \"#utility.yul\":8397:8400   */\n      dup6\n        /* \"#utility.yul\":8379:8401   */\n      tag_68\n      jump\t// in\n    tag_180:\n        /* \"#utility.yul\":8369:8377   */\n      dup4\n        /* \"#utility.yul\":8365:8402   */\n      add\n        /* \"#utility.yul\":8352:8363   */\n      dup3\n        /* \"#utility.yul\":8323:8403   */\n      tag_77\n      jump\t// in\n    tag_179:\n        /* \"#utility.yul\":7982:8413   */\n      pop\n      pop\n        /* \"#utility.yul\":7967:8413   */\n    tag_175:\n        /* \"#utility.yul\":7877:8420   */\n      pop\n      pop\n      pop\n      jump\t// out\n        /* \"#utility.yul\":8426:8543   */\n    tag_79:\n        /* \"#utility.yul\":8480:8488   */\n      0x00\n        /* \"#utility.yul\":8530:8535   */\n      dup3\n        /* \"#utility.yul\":8524:8528   */\n      dup3\n        /* \"#utility.yul\":8520:8536   */\n      shr\n        /* \"#utility.yul\":8499:8536   */\n      swap1\n      pop\n        /* \"#utility.yul\":8426:8543   */\n      swap3\n      swap2\n      pop\n      pop\n      jump\t// out\n        /* \"#utility.yul\":8549:8718   */\n    tag_80:\n        /* \"#utility.yul\":8593:8599   */\n      0x00\n        /* \"#utility.yul\":8626:8677   */\n      tag_183\n        /* \"#utility.yul\":8674:8675   */\n      0x00\n        /* \"#utility.yul\":8670:8676   */\n      not\n        /* \"#utility.yul\":8662:8667   */\n      dup5\n        /* \"#utility.yul\":8659:8660   */\n      0x08\n        /* \"#utility.yul\":8655:8668   */\n      mul\n        /* \"#utility.yul\":8626:8677   */\n      tag_79\n      jump\t// in\n    tag_183:\n        /* \"#utility.yul\":8622:8678   */\n      not\n        /* \"#utility.yul\":8707:8711   */\n      dup1\n        /* \"#utility.yul\":8701:8705   */\n      dup4\n        /* \"#utility.yul\":8697:8712   */\n      and\n        /* \"#utility.yul\":8687:8712   */\n      swap2\n      pop\n        /* \"#utility.yul\":8600:8718   */\n      pop\n        /* \"#utility.yul\":8549:8718   */\n      swap3\n      swap2\n      pop\n      pop\n      jump\t// out\n        /* \"#utility.yul\":8723:9018   */\n    tag_81:\n        /* \"#utility.yul\":8799:8803   */\n      0x00\n        /* \"#utility.yul\":8945:8974   */\n      tag_185\n        /* \"#utility.yul\":8970:8973   */\n      dup4\n        /* \"#utility.yul\":8964:8968   */\n      dup4\n        /* \"#utility.yul\":8945:8974   */\n      tag_80\n      jump\t// in\n    tag_185:\n        /* \"#utility.yul\":8937:8974   */\n      swap2\n      pop\n        /* \"#utility.yul\":9007:9010   */\n      dup3\n        /* \"#utility.yul\":9004:9005   */\n      0x02\n        /* \"#utility.yul\":9000:9011   */\n      mul\n        /* \"#utility.yul\":8994:8998   */\n      dup3\n        /* \"#utility.yul\":8991:9012   */\n      or\n        /* \"#utility.yul\":8983:9012   */\n      swap1\n      pop\n        /* \"#utility.yul\":8723:9018   */\n      swap3\n      swap2\n      pop\n      pop\n      jump\t// out\n        /* \"#utility.yul\":9023:10418   */\n    tag_43:\n        /* \"#utility.yul\":9140:9177   */\n      tag_187\n        /* \"#utility.yul\":9173:9176   */\n      dup3\n        /* \"#utility.yul\":9140:9177   */\n      tag_51\n      jump\t// in\n    tag_187:\n        /* \"#utility.yul\":9242:9260   */\n      0xffffffffffffffff\n        /* \"#utility.yul\":9234:9240   */\n      dup2\n        /* \"#utility.yul\":9231:9261   */\n      gt\n        /* \"#utility.yul\":9228:9284   */\n      iszero\n      tag_188\n      jumpi\n        /* \"#utility.yul\":9264:9282   */\n      tag_189\n      tag_59\n      jump\t// in\n    tag_189:\n        /* \"#utility.yul\":9228:9284   */\n    tag_188:\n        /* \"#utility.yul\":9308:9346   */\n      tag_190\n        /* \"#utility.yul\":9340:9344   */\n      dup3\n        /* \"#utility.yul\":9334:9345   */\n      sload\n        /* \"#utility.yul\":9308:9346   */\n      tag_31\n      jump\t// in\n    tag_190:\n        /* \"#utility.yul\":9393:9460   */\n      tag_191\n        /* \"#utility.yul\":9453:9459   */\n      dup3\n        /* \"#utility.yul\":9445:9451   */\n      dup3\n        /* \"#utility.yul\":9439:9443   */\n      dup6\n        /* \"#utility.yul\":9393:9460   */\n      tag_78\n      jump\t// in\n    tag_191:\n        /* \"#utility.yul\":9487:9488   */\n      0x00\n        /* \"#utility.yul\":9511:9515   */\n      0x20\n        /* \"#utility.yul\":9498:9515   */\n      swap1\n      pop\n        /* \"#utility.yul\":9543:9545   */\n      0x1f\n        /* \"#utility.yul\":9535:9541   */\n      dup4\n        /* \"#utility.yul\":9532:9546   */\n      gt\n        /* \"#utility.yul\":9560:9561   */\n      0x01\n        /* \"#utility.yul\":9555:10173   */\n      dup2\n      eq\n      tag_193\n      jumpi\n        /* \"#utility.yul\":10217:10218   */\n      0x00\n        /* \"#utility.yul\":10234:10240   */\n      dup5\n        /* \"#utility.yul\":10231:10308   */\n      iszero\n      tag_194\n      jumpi\n        /* \"#utility.yul\":10283:10292   */\n      dup3\n        /* \"#utility.yul\":10278:10281   */\n      dup8\n        /* \"#utility.yul\":10274:10293   */\n      add\n        /* \"#utility.yul\":10268:10294   */\n      mload\n        /* \"#utility.yul\":10259:10294   */\n      swap1\n      pop\n        /* \"#utility.yul\":10231:10308   */\n    tag_194:\n        /* \"#utility.yul\":10334:10401   */\n      tag_195\n        /* \"#utility.yul\":10394:10400   */\n      dup6\n        /* \"#utility.yul\":10387:10392   */\n      dup3\n        /* \"#utility.yul\":10334:10401   */\n      tag_81\n      jump\t// in\n    tag_195:\n        /* \"#utility.yul\":10328:10332   */\n      dup7\n        /* \"#utility.yul\":10321:10402   */\n      sstore\n        /* \"#utility.yul\":10190:10412   */\n      pop\n        /* \"#utility.yul\":9525:10412   */\n      jump(tag_192)\n        /* \"#utility.yul\":9555:10173   */\n    tag_193:\n        /* \"#utility.yul\":9607:9611   */\n      0x1f\n        /* \"#utility.yul\":9603:9612   */\n      not\n        /* \"#utility.yul\":9595:9601   */\n      dup5\n        /* \"#utility.yul\":9591:9613   */\n      and\n        /* \"#utility.yul\":9641:9678   */\n      tag_196\n        /* \"#utility.yul\":9673:9677   */\n      dup7\n        /* \"#utility.yul\":9641:9678   */\n      tag_67\n      jump\t// in\n    tag_196:\n        /* \"#utility.yul\":9700:9701   */\n      0x00\n        /* \"#utility.yul\":9714:9922   */\n    tag_197:\n        /* \"#utility.yul\":9728:9735   */\n      dup3\n        /* \"#utility.yul\":9725:9726   */\n      dup2\n        /* \"#utility.yul\":9722:9736   */\n      lt\n        /* \"#utility.yul\":9714:9922   */\n      iszero\n      tag_199\n      jumpi\n        /* \"#utility.yul\":9807:9816   */\n      dup5\n        /* \"#utility.yul\":9802:9805   */\n      dup10\n        /* \"#utility.yul\":9798:9817   */\n      add\n        /* \"#utility.yul\":9792:9818   */\n      mload\n        /* \"#utility.yul\":9784:9790   */\n      dup3\n        /* \"#utility.yul\":9777:9819   */\n      sstore\n        /* \"#utility.yul\":9858:9859   */\n      0x01\n        /* \"#utility.yul\":9850:9856   */\n      dup3\n        /* \"#utility.yul\":9846:9860   */\n      add\n        /* \"#utility.yul\":9836:9860   */\n      swap2\n      pop\n        /* \"#utility.yul\":9905:9907   */\n      0x20\n        /* \"#utility.yul\":9894:9903   */\n      dup6\n        /* \"#utility.yul\":9890:9908   */\n      add\n        /* \"#utility.yul\":9877:9908   */\n      swap5\n      pop\n        /* \"#utility.yul\":9751:9755   */\n      0x20\n        /* \"#utility.yul\":9748:9749   */\n      dup2\n        /* \"#utility.yul\":9744:9756   */\n      add\n        /* \"#utility.yul\":9739:9756   */\n      swap1\n      pop\n        /* \"#utility.yul\":9714:9922   */\n      jump(tag_197)\n    tag_199:\n        /* \"#utility.yul\":9950:9956   */\n      dup7\n        /* \"#utility.yul\":9941:9948   */\n      dup4\n        /* \"#utility.yul\":9938:9957   */\n      lt\n        /* \"#utility.yul\":9935:10114   */\n      iszero\n      tag_200\n      jumpi\n        /* \"#utility.yul\":10008:10017   */\n      dup5\n        /* \"#utility.yul\":10003:10006   */\n      dup10\n        /* \"#utility.yul\":9999:10018   */\n      add\n        /* \"#utility.yul\":9993:10019   */\n      mload\n        /* \"#utility.yul\":10051:10099   */\n      tag_201\n        /* \"#utility.yul\":10093:10097   */\n      0x1f\n        /* \"#utility.yul\":10085:10091   */\n      dup10\n        /* \"#utility.yul\":10081:10098   */\n      and\n        /* \"#utility.yul\":10070:10079   */\n      dup3\n        /* \"#utility.yul\":10051:10099   */\n      tag_80\n      jump\t// in\n    tag_201:\n        /* \"#utility.yul\":10043:10049   */\n      dup4\n        /* \"#utility.yul\":10036:10100   */\n      sstore\n        /* \"#utility.yul\":9958:10114   */\n      pop\n        /* \"#utility.yul\":9935:10114   */\n    tag_200:\n        /* \"#utility.yul\":10160:10161   */\n      0x01\n        /* \"#utility.yul\":10156:10157   */\n      0x02\n        /* \"#utility.yul\":10148:10154   */\n      dup9\n        /* \"#utility.yul\":10144:10158   */\n      mul\n        /* \"#utility.yul\":10140:10162   */\n      add\n        /* \"#utility.yul\":10134:10138   */\n      dup9\n        /* \"#utility.yul\":10127:10163   */\n      sstore\n        /* \"#utility.yul\":9562:10173   */\n      pop\n      pop\n      pop\n        /* \"#utility.yul\":9525:10412   */\n    tag_192:\n      pop\n        /* \"#utility.yul\":9115:10418   */\n      pop\n      pop\n      pop\n        /* \"#utility.yul\":9023:10418   */\n      pop\n      pop\n      jump\t// out\n\n    auxdata: 0xa26469706673582212207f016faf752b34f24056f7a2bd96eac0a567d28043f2541b7c97127b56ffc63764736f6c634300081a0033\n}\n",
				"bytecode": {
					"linkReferences": {},
					"object": "6080604052348015600e575f80fd5b5061080d8061001c5f395ff3fe608060405234801561000f575f80fd5b506004361061004a575f3560e01c806340ab422e1461004e578063689b55dd1461007e5780636f760f41146100ae578063a9d53186146100ca575b5f80fd5b61006860048036038101906100639190610278565b6100e8565b6040516100759190610313565b60405180910390f35b61009860048036038101906100939190610278565b610199565b6040516100a59190610342565b60405180910390f35b6100c860048036038101906100c39190610487565b6101c4565b005b6100d2610229565b6040516100df9190610342565b60405180910390f35b60605f82815481106100fd576100fc6104e1565b5b905f5260205f2090600202015f0180546101169061053b565b80601f01602080910402602001604051908101604052809291908181526020018280546101429061053b565b801561018d5780601f106101645761010080835404028352916020019161018d565b820191905f5260205f20905b81548152906001019060200180831161017057829003601f168201915b50505050509050919050565b5f8082815481106101ad576101ac6104e1565b5b905f5260205f209060020201600101549050919050565b5f60405180604001604052808481526020018381525090505f81908060018154018082558091505060019003905f5260205f2090600202015f909190919091505f820151815f0190816102179190610708565b50602082015181600101555050505050565b5f8080549050905090565b5f604051905090565b5f80fd5b5f80fd5b5f819050919050565b61025781610245565b8114610261575f80fd5b50565b5f813590506102728161024e565b92915050565b5f6020828403121561028d5761028c61023d565b5b5f61029a84828501610264565b91505092915050565b5f81519050919050565b5f82825260208201905092915050565b8281835e5f83830152505050565b5f601f19601f8301169050919050565b5f6102e5826102a3565b6102ef81856102ad565b93506102ff8185602086016102bd565b610308816102cb565b840191505092915050565b5f6020820190508181035f83015261032b81846102db565b905092915050565b61033c81610245565b82525050565b5f6020820190506103555f830184610333565b92915050565b5f80fd5b5f80fd5b7f4e487b71000000000000000000000000000000000000000000000000000000005f52604160045260245ffd5b610399826102cb565b810181811067ffffffffffffffff821117156103b8576103b7610363565b5b80604052505050565b5f6103ca610234565b90506103d68282610390565b919050565b5f67ffffffffffffffff8211156103f5576103f4610363565b5b6103fe826102cb565b9050602081019050919050565b828183375f83830152505050565b5f61042b610426846103db565b6103c1565b9050828152602081018484840111156104475761044661035f565b5b61045284828561040b565b509392505050565b5f82601f83011261046e5761046d61035b565b5b813561047e848260208601610419565b91505092915050565b5f806040838503121561049d5761049c61023d565b5b5f83013567ffffffffffffffff8111156104ba576104b9610241565b5b6104c68582860161045a565b92505060206104d785828601610264565b9150509250929050565b7f4e487b71000000000000000000000000000000000000000000000000000000005f52603260045260245ffd5b7f4e487b71000000000000000000000000000000000000000000000000000000005f52602260045260245ffd5b5f600282049050600182168061055257607f821691505b6020821081036105655761056461050e565b5b50919050565b5f819050815f5260205f209050919050565b5f6020601f8301049050919050565b5f82821b905092915050565b5f600883026105c77fffffffffffffffffffffffffffffffffffffffffffffffffffffffffffffffff8261058c565b6105d1868361058c565b95508019841693508086168417925050509392505050565b5f819050919050565b5f61060c61060761060284610245565b6105e9565b610245565b9050919050565b5f819050919050565b610625836105f2565b61063961063182610613565b848454610598565b825550505050565b5f90565b61064d610641565b61065881848461061c565b505050565b5b8181101561067b576106705f82610645565b60018101905061065e565b5050565b601f8211156106c0576106918161056b565b61069a8461057d565b810160208510156106a9578190505b6106bd6106b58561057d565b83018261065d565b50505b505050565b5f82821c905092915050565b5f6106e05f19846008026106c5565b1980831691505092915050565b5f6106f883836106d1565b9150826002028217905092915050565b610711826102a3565b67ffffffffffffffff81111561072a57610729610363565b5b610734825461053b565b61073f82828561067f565b5f60209050601f831160018114610770575f841561075e578287015190505b61076885826106ed565b8655506107cf565b601f19841661077e8661056b565b5f5b828110156107a557848901518255600182019150602085019450602081019050610780565b868310156107c257848901516107be601f8916826106d1565b8355505b6001600288020188555050505b50505050505056fea26469706673582212207f016faf752b34f24056f7a2bd96eac0a567d28043f2541b7c97127b56ffc63764736f6c634300081a0033",
					"opcodes": "PUSH1 0x80 PUSH1 0x40 MSTORE CALLVALUE DUP1 ISZERO PUSH1 0xE JUMPI PUSH0 DUP1 REVERT JUMPDEST POP PUSH2 0x80D DUP1 PUSH2 0x1C PUSH0 CODECOPY PUSH0 RETURN INVALID PUSH1 0x80 PUSH1 0x40 MSTORE CALLVALUE DUP1 ISZERO PUSH2 0xF JUMPI PUSH0 DUP1 REVERT JUMPDEST POP PUSH1 0x4 CALLDATASIZE LT PUSH2 0x4A JUMPI PUSH0 CALLDATALOAD PUSH1 0xE0 SHR DUP1 PUSH4 0x40AB422E EQ PUSH2 0x4E JUMPI DUP1 PUSH4 0x689B55DD EQ PUSH2 0x7E JUMPI DUP1 PUSH4 0x6F760F41 EQ PUSH2 0xAE JUMPI DUP1 PUSH4 0xA9D53186 EQ PUSH2 0xCA JUMPI JUMPDEST PUSH0 DUP1 REVERT JUMPDEST PUSH2 0x68 PUSH1 0x4 DUP1 CALLDATASIZE SUB DUP2 ADD SWAP1 PUSH2 0x63 SWAP2 SWAP1 PUSH2 0x278 JUMP JUMPDEST PUSH2 0xE8 JUMP JUMPDEST PUSH1 0x40 MLOAD PUSH2 0x75 SWAP2 SWAP1 PUSH2 0x313 JUMP JUMPDEST PUSH1 0x40 MLOAD DUP1 SWAP2 SUB SWAP1 RETURN JUMPDEST PUSH2 0x98 PUSH1 0x4 DUP1 CALLDATASIZE SUB DUP2 ADD SWAP1 PUSH2 0x93 SWAP2 SWAP1 PUSH2 0x278 JUMP JUMPDEST PUSH2 0x199 JUMP JUMPDEST PUSH1 0x40 MLOAD PUSH2 0xA5 SWAP2 SWAP1 PUSH2 0x342 JUMP JUMPDEST PUSH1 0x40 MLOAD DUP1 SWAP2 SUB SWAP1 RETURN JUMPDEST PUSH2 0xC8 PUSH1 0x4 DUP1 CALLDATASIZE SUB DUP2 ADD SWAP1 PUSH2 0xC3 SWAP2 SWAP1 PUSH2 0x487 JUMP JUMPDEST PUSH2 0x1C4 JUMP JUMPDEST STOP JUMPDEST PUSH2 0xD2 PUSH2 0x229 JUMP JUMPDEST PUSH1 0x40 MLOAD PUSH2 0xDF SWAP2 SWAP1 PUSH2 0x342 JUMP JUMPDEST PUSH1 0x40 MLOAD DUP1 SWAP2 SUB SWAP1 RETURN JUMPDEST PUSH1 0x60 PUSH0 DUP3 DUP2 SLOAD DUP2 LT PUSH2 0xFD JUMPI PUSH2 0xFC PUSH2 0x4E1 JUMP JUMPDEST JUMPDEST SWAP1 PUSH0 MSTORE PUSH1 0x20 PUSH0 KECCAK256 SWAP1 PUSH1 0x2 MUL ADD PUSH0 ADD DUP1 SLOAD PUSH2 0x116 SWAP1 PUSH2 0x53B JUMP JUMPDEST DUP1 PUSH1 0x1F ADD PUSH1 0x20 DUP1 SWAP2 DIV MUL PUSH1 0x20 ADD PUSH1 0x40 MLOAD SWAP1 DUP2 ADD PUSH1 0x40 MSTORE DUP1 SWAP3 SWAP2 SWAP1 DUP2 DUP2 MSTORE PUSH1 0x20 ADD DUP3 DUP1 SLOAD PUSH2 0x142 SWAP1 PUSH2 0x53B JUMP JUMPDEST DUP1 ISZERO PUSH2 0x18D JUMPI DUP1 PUSH1 0x1F LT PUSH2 0x164 JUMPI PUSH2 0x100 DUP1 DUP4 SLOAD DIV MUL DUP4 MSTORE SWAP2 PUSH1 0x20 ADD SWAP2 PUSH2 0x18D JUMP JUMPDEST DUP3 ADD SWAP2 SWAP1 PUSH0 MSTORE PUSH1 0x20 PUSH0 KECCAK256 SWAP1 JUMPDEST DUP2 SLOAD DUP2 MSTORE SWAP1 PUSH1 0x1 ADD SWAP1 PUSH1 0x20 ADD DUP1 DUP4 GT PUSH2 0x170 JUMPI DUP3 SWAP1 SUB PUSH1 0x1F AND DUP3 ADD SWAP2 JUMPDEST POP POP POP POP POP SWAP1 POP SWAP2 SWAP1 POP JUMP JUMPDEST PUSH0 DUP1 DUP3 DUP2 SLOAD DUP2 LT PUSH2 0x1AD JUMPI PUSH2 0x1AC PUSH2 0x4E1 JUMP JUMPDEST JUMPDEST SWAP1 PUSH0 MSTORE PUSH1 0x20 PUSH0 KECCAK256 SWAP1 PUSH1 0x2 MUL ADD PUSH1 0x1 ADD SLOAD SWAP1 POP SWAP2 SWAP1 POP JUMP JUMPDEST PUSH0 PUSH1 0x40 MLOAD DUP1 PUSH1 0x40 ADD PUSH1 0x40 MSTORE DUP1 DUP5 DUP2 MSTORE PUSH1 0x20 ADD DUP4 DUP2 MSTORE POP SWAP1 POP PUSH0 DUP2 SWAP1 DUP1 PUSH1 0x1 DUP2 SLOAD ADD DUP1 DUP3 SSTORE DUP1 SWAP2 POP POP PUSH1 0x1 SWAP1 SUB SWAP1 PUSH0 MSTORE PUSH1 0x20 PUSH0 KECCAK256 SWAP1 PUSH1 0x2 MUL ADD PUSH0 SWAP1 SWAP2 SWAP1 SWAP2 SWAP1 SWAP2 POP PUSH0 DUP3 ADD MLOAD DUP2 PUSH0 ADD SWAP1 DUP2 PUSH2 0x217 SWAP2 SWAP1 PUSH2 0x708 JUMP JUMPDEST POP PUSH1 0x20 DUP3 ADD MLOAD DUP2 PUSH1 0x1 ADD SSTORE POP POP POP POP POP JUMP JUMPDEST PUSH0 DUP1 DUP1 SLOAD SWAP1 POP SWAP1 POP SWAP1 JUMP JUMPDEST PUSH0 PUSH1 0x40 MLOAD SWAP1 POP SWAP1 JUMP JUMPDEST PUSH0 DUP1 REVERT JUMPDEST PUSH0 DUP1 REVERT JUMPDEST PUSH0 DUP2 SWAP1 POP SWAP2 SWAP1 POP JUMP JUMPDEST PUSH2 0x257 DUP2 PUSH2 0x245 JUMP JUMPDEST DUP2 EQ PUSH2 0x261 JUMPI PUSH0 DUP1 REVERT JUMPDEST POP JUMP JUMPDEST PUSH0 DUP2 CALLDATALOAD SWAP1 POP PUSH2 0x272 DUP2 PUSH2 0x24E JUMP JUMPDEST SWAP3 SWAP2 POP POP JUMP JUMPDEST PUSH0 PUSH1 0x20 DUP3 DUP5 SUB SLT ISZERO PUSH2 0x28D JUMPI PUSH2 0x28C PUSH2 0x23D JUMP JUMPDEST JUMPDEST PUSH0 PUSH2 0x29A DUP5 DUP3 DUP6 ADD PUSH2 0x264 JUMP JUMPDEST SWAP2 POP POP SWAP3 SWAP2 POP POP JUMP JUMPDEST PUSH0 DUP2 MLOAD SWAP1 POP SWAP2 SWAP1 POP JUMP JUMPDEST PUSH0 DUP3 DUP3 MSTORE PUSH1 0x20 DUP3 ADD SWAP1 POP SWAP3 SWAP2 POP POP JUMP JUMPDEST DUP3 DUP2 DUP4 MCOPY PUSH0 DUP4 DUP4 ADD MSTORE POP POP POP JUMP JUMPDEST PUSH0 PUSH1 0x1F NOT PUSH1 0x1F DUP4 ADD AND SWAP1 POP SWAP2 SWAP1 POP JUMP JUMPDEST PUSH0 PUSH2 0x2E5 DUP3 PUSH2 0x2A3 JUMP JUMPDEST PUSH2 0x2EF DUP2 DUP6 PUSH2 0x2AD JUMP JUMPDEST SWAP4 POP PUSH2 0x2FF DUP2 DUP6 PUSH1 0x20 DUP7 ADD PUSH2 0x2BD JUMP JUMPDEST PUSH2 0x308 DUP2 PUSH2 0x2CB JUMP JUMPDEST DUP5 ADD SWAP2 POP POP SWAP3 SWAP2 POP POP JUMP JUMPDEST PUSH0 PUSH1 0x20 DUP3 ADD SWAP1 POP DUP2 DUP2 SUB PUSH0 DUP4 ADD MSTORE PUSH2 0x32B DUP2 DUP5 PUSH2 0x2DB JUMP JUMPDEST SWAP1 POP SWAP3 SWAP2 POP POP JUMP JUMPDEST PUSH2 0x33C DUP2 PUSH2 0x245 JUMP JUMPDEST DUP3 MSTORE POP POP JUMP JUMPDEST PUSH0 PUSH1 0x20 DUP3 ADD SWAP1 POP PUSH2 0x355 PUSH0 DUP4 ADD DUP5 PUSH2 0x333 JUMP JUMPDEST SWAP3 SWAP2 POP POP JUMP JUMPDEST PUSH0 DUP1 REVERT JUMPDEST PUSH0 DUP1 REVERT JUMPDEST PUSH32 0x4E487B7100000000000000000000000000000000000000000000000000000000 PUSH0 MSTORE PUSH1 0x41 PUSH1 0x4 MSTORE PUSH1 0x24 PUSH0 REVERT JUMPDEST PUSH2 0x399 DUP3 PUSH2 0x2CB JUMP JUMPDEST DUP2 ADD DUP2 DUP2 LT PUSH8 0xFFFFFFFFFFFFFFFF DUP3 GT OR ISZERO PUSH2 0x3B8 JUMPI PUSH2 0x3B7 PUSH2 0x363 JUMP JUMPDEST JUMPDEST DUP1 PUSH1 0x40 MSTORE POP POP POP JUMP JUMPDEST PUSH0 PUSH2 0x3CA PUSH2 0x234 JUMP JUMPDEST SWAP1 POP PUSH2 0x3D6 DUP3 DUP3 PUSH2 0x390 JUMP JUMPDEST SWAP2 SWAP1 POP JUMP JUMPDEST PUSH0 PUSH8 0xFFFFFFFFFFFFFFFF DUP3 GT ISZERO PUSH2 0x3F5 JUMPI PUSH2 0x3F4 PUSH2 0x363 JUMP JUMPDEST JUMPDEST PUSH2 0x3FE DUP3 PUSH2 0x2CB JUMP JUMPDEST SWAP1 POP PUSH1 0x20 DUP2 ADD SWAP1 POP SWAP2 SWAP1 POP JUMP JUMPDEST DUP3 DUP2 DUP4 CALLDATACOPY PUSH0 DUP4 DUP4 ADD MSTORE POP POP POP JUMP JUMPDEST PUSH0 PUSH2 0x42B PUSH2 0x426 DUP5 PUSH2 0x3DB JUMP JUMPDEST PUSH2 0x3C1 JUMP JUMPDEST SWAP1 POP DUP3 DUP2 MSTORE PUSH1 0x20 DUP2 ADD DUP5 DUP5 DUP5 ADD GT ISZERO PUSH2 0x447 JUMPI PUSH2 0x446 PUSH2 0x35F JUMP JUMPDEST JUMPDEST PUSH2 0x452 DUP5 DUP3 DUP6 PUSH2 0x40B JUMP JUMPDEST POP SWAP4 SWAP3 POP POP POP JUMP JUMPDEST PUSH0 DUP3 PUSH1 0x1F DUP4 ADD SLT PUSH2 0x46E JUMPI PUSH2 0x46D PUSH2 0x35B JUMP JUMPDEST JUMPDEST DUP2 CALLDATALOAD PUSH2 0x47E DUP5 DUP3 PUSH1 0x20 DUP7 ADD PUSH2 0x419 JUMP JUMPDEST SWAP2 POP POP SWAP3 SWAP2 POP POP JUMP JUMPDEST PUSH0 DUP1 PUSH1 0x40 DUP4 DUP6 SUB SLT ISZERO PUSH2 0x49D JUMPI PUSH2 0x49C PUSH2 0x23D JUMP JUMPDEST JUMPDEST PUSH0 DUP4 ADD CALLDATALOAD PUSH8 0xFFFFFFFFFFFFFFFF DUP2 GT ISZERO PUSH2 0x4BA JUMPI PUSH2 0x4B9 PUSH2 0x241 JUMP JUMPDEST JUMPDEST PUSH2 0x4C6 DUP6 DUP3 DUP7 ADD PUSH2 0x45A JUMP JUMPDEST SWAP3 POP POP PUSH1 0x20 PUSH2 0x4D7 DUP6 DUP3 DUP7 ADD PUSH2 0x264 JUMP JUMPDEST SWAP2 POP POP SWAP3 POP SWAP3 SWAP1 POP JUMP JUMPDEST PUSH32 0x4E487B7100000000000000000000000000000000000000000000000000000000 PUSH0 MSTORE PUSH1 0x32 PUSH1 0x4 MSTORE PUSH1 0x24 PUSH0 REVERT JUMPDEST PUSH32 0x4E487B7100000000000000000000000000000000000000000000000000000000 PUSH0 MSTORE PUSH1 0x22 PUSH1 0x4 MSTORE PUSH1 0x24 PUSH0 REVERT JUMPDEST PUSH0 PUSH1 0x2 DUP3 DIV SWAP1 POP PUSH1 0x1 DUP3 AND DUP1 PUSH2 0x552 JUMPI PUSH1 0x7F DUP3 AND SWAP2 POP JUMPDEST PUSH1 0x20 DUP3 LT DUP2 SUB PUSH2 0x565 JUMPI PUSH2 0x564 PUSH2 0x50E JUMP JUMPDEST JUMPDEST POP SWAP2 SWAP1 POP JUMP JUMPDEST PUSH0 DUP2 SWAP1 POP DUP2 PUSH0 MSTORE PUSH1 0x20 PUSH0 KECCAK256 SWAP1 POP SWAP2 SWAP1 POP JUMP JUMPDEST PUSH0 PUSH1 0x20 PUSH1 0x1F DUP4 ADD DIV SWAP1 POP SWAP2 SWAP1 POP JUMP JUMPDEST PUSH0 DUP3 DUP3 SHL SWAP1 POP SWAP3 SWAP2 POP POP JUMP JUMPDEST PUSH0 PUSH1 0x8 DUP4 MUL PUSH2 0x5C7 PUSH32 0xFFFFFFFFFFFFFFFFFFFFFFFFFFFFFFFFFFFFFFFFFFFFFFFFFFFFFFFFFFFFFFFF DUP3 PUSH2 0x58C JUMP JUMPDEST PUSH2 0x5D1 DUP7 DUP4 PUSH2 0x58C JUMP JUMPDEST SWAP6 POP DUP1 NOT DUP5 AND SWAP4 POP DUP1 DUP7 AND DUP5 OR SWAP3 POP POP POP SWAP4 SWAP3 POP POP POP JUMP JUMPDEST PUSH0 DUP2 SWAP1 POP SWAP2 SWAP1 POP JUMP JUMPDEST PUSH0 PUSH2 0x60C PUSH2 0x607 PUSH2 0x602 DUP5 PUSH2 0x245 JUMP JUMPDEST PUSH2 0x5E9 JUMP JUMPDEST PUSH2 0x245 JUMP JUMPDEST SWAP1 POP SWAP2 SWAP1 POP JUMP JUMPDEST PUSH0 DUP2 SWAP1 POP SWAP2 SWAP1 POP JUMP JUMPDEST PUSH2 0x625 DUP4 PUSH2 0x5F2 JUMP JUMPDEST PUSH2 0x639 PUSH2 0x631 DUP3 PUSH2 0x613 JUMP JUMPDEST DUP5 DUP5 SLOAD PUSH2 0x598 JUMP JUMPDEST DUP3 SSTORE POP POP POP POP JUMP JUMPDEST PUSH0 SWAP1 JUMP JUMPDEST PUSH2 0x64D PUSH2 0x641 JUMP JUMPDEST PUSH2 0x658 DUP2 DUP5 DUP5 PUSH2 0x61C JUMP JUMPDEST POP POP POP JUMP JUMPDEST JUMPDEST DUP2 DUP2 LT ISZERO PUSH2 0x67B JUMPI PUSH2 0x670 PUSH0 DUP3 PUSH2 0x645 JUMP JUMPDEST PUSH1 0x1 DUP2 ADD SWAP1 POP PUSH2 0x65E JUMP JUMPDEST POP POP JUMP JUMPDEST PUSH1 0x1F DUP3 GT ISZERO PUSH2 0x6C0 JUMPI PUSH2 0x691 DUP2 PUSH2 0x56B JUMP JUMPDEST PUSH2 0x69A DUP5 PUSH2 0x57D JUMP JUMPDEST DUP2 ADD PUSH1 0x20 DUP6 LT ISZERO PUSH2 0x6A9 JUMPI DUP2 SWAP1 POP JUMPDEST PUSH2 0x6BD PUSH2 0x6B5 DUP6 PUSH2 0x57D JUMP JUMPDEST DUP4 ADD DUP3 PUSH2 0x65D JUMP JUMPDEST POP POP JUMPDEST POP POP POP JUMP JUMPDEST PUSH0 DUP3 DUP3 SHR SWAP1 POP SWAP3 SWAP2 POP POP JUMP JUMPDEST PUSH0 PUSH2 0x6E0 PUSH0 NOT DUP5 PUSH1 0x8 MUL PUSH2 0x6C5 JUMP JUMPDEST NOT DUP1 DUP4 AND SWAP2 POP POP SWAP3 SWAP2 POP POP JUMP JUMPDEST PUSH0 PUSH2 0x6F8 DUP4 DUP4 PUSH2 0x6D1 JUMP JUMPDEST SWAP2 POP DUP3 PUSH1 0x2 MUL DUP3 OR SWAP1 POP SWAP3 SWAP2 POP POP JUMP JUMPDEST PUSH2 0x711 DUP3 PUSH2 0x2A3 JUMP JUMPDEST PUSH8 0xFFFFFFFFFFFFFFFF DUP2 GT ISZERO PUSH2 0x72A JUMPI PUSH2 0x729 PUSH2 0x363 JUMP JUMPDEST JUMPDEST PUSH2 0x734 DUP3 SLOAD PUSH2 0x53B JUMP JUMPDEST PUSH2 0x73F DUP3 DUP3 DUP6 PUSH2 0x67F JUMP JUMPDEST PUSH0 PUSH1 0x20 SWAP1 POP PUSH1 0x1F DUP4 GT PUSH1 0x1 DUP2 EQ PUSH2 0x770 JUMPI PUSH0 DUP5 ISZERO PUSH2 0x75E JUMPI DUP3 DUP8 ADD MLOAD SWAP1 POP JUMPDEST PUSH2 0x768 DUP6 DUP3 PUSH2 0x6ED JUMP JUMPDEST DUP7 SSTORE POP PUSH2 0x7CF JUMP JUMPDEST PUSH1 0x1F NOT DUP5 AND PUSH2 0x77E DUP7 PUSH2 0x56B JUMP JUMPDEST PUSH0 JUMPDEST DUP3 DUP2 LT ISZERO PUSH2 0x7A5 JUMPI DUP5 DUP10 ADD MLOAD DUP3 SSTORE PUSH1 0x1 DUP3 ADD SWAP2 POP PUSH1 0x20 DUP6 ADD SWAP5 POP PUSH1 0x20 DUP2 ADD SWAP1 POP PUSH2 0x780 JUMP JUMPDEST DUP7 DUP4 LT ISZERO PUSH2 0x7C2 JUMPI DUP5 DUP10 ADD MLOAD PUSH2 0x7BE PUSH1 0x1F DUP10 AND DUP3 PUSH2 0x6D1 JUMP JUMPDEST DUP4 SSTORE POP JUMPDEST PUSH1 0x1 PUSH1 0x2 DUP9 MUL ADD DUP9 SSTORE POP POP POP JUMPDEST POP POP POP POP POP POP JUMP INVALID LOG2 PUSH5 0x6970667358 0x22 SLT KECCAK256 PUSH32 0x16FAF752B34F24056F7A2BD96EAC0A567D28043F2541B7C97127B56FFC63764 PUSH20 0x6F6C634300081A00330000000000000000000000 "
				},
				"gasEstimates": {
					"creation": {
						"codeDepositCost": "412200",
						"executionCost": "447",
						"totalCost": "412647"
					},
					"external": {
						"addPerson(string,uint256)": "infinite",
						"getPeopleCount()": "2484",
						"getPersonAge(uint256)": "infinite",
						"getPersonName(uint256)": "infinite"
					}
				},
				"methodIdentifiers": {
					"addPerson(string,uint256)": "6f760f41",
					"getPeopleCount()": "a9d53186",
					"getPersonAge(uint256)": "689b55dd",
					"getPersonName(uint256)": "40ab422e"
				}
			},
			"storageLayout": {
				"storage": [
					{
						"astId": 10,
						"contract": "contracts/MyStructContract.sol:MyStructContract",
						"label": "people",
						"offset": 0,
						"slot": "0",
						"type": "t_array(t_struct(Person)6_storage)dyn_storage"
					}
				],
				"types": {
					"t_array(t_struct(Person)6_storage)dyn_storage": {
						"base": "t_struct(Person)6_storage",
						"encoding": "dynamic_array",
						"label": "struct MyStructContract.Person[]",
						"numberOfBytes": "32"
					},
					"t_string_storage": {
						"encoding": "bytes",
						"label": "string",
						"numberOfBytes": "32"
					},
					"t_struct(Person)6_storage": {
						"encoding": "inplace",
						"label": "struct MyStructContract.Person",
						"members": [
							{
								"astId": 3,
								"contract": "contracts/MyStructContract.sol:MyStructContract",
								"label": "name",
								"offset": 0,
								"slot": "0",
								"type": "t_string_storage"
							},
							{
								"astId": 5,
								"contract": "contracts/MyStructContract.sol:MyStructContract",
								"label": "age",
								"offset": 0,
								"slot": "1",
								"type": "t_uint256"
							}
						],
						"numberOfBytes": "64"
					},
					"t_uint256": {
						"encoding": "inplace",
						"label": "uint256",
						"numberOfBytes": "32"
					}
				}
			},
			"userdoc": {
				"kind": "user",
				"methods": {},
				"version": 1
			}
		}
	}
}