{
	"contracts/MyEnumContract.sol": {
		"MyEnumContract": {
			"abi": [
				{
					"inputs": [],
					"name": "currentStatus",
					"outputs": [
						{
							"internalType": "enum MyEnumContract.Status",
							"name": "",
							"type": "uint8"
						}
					],
					"stateMutability": "view",
					"type": "function"
				},
				{
					"inputs": [],
					"name": "getStatus",
					"outputs": [
						{
							"internalType": "string",
							"name": "",
							"type": "string"
						}
					],
					"stateMutability": "view",
					"type": "function"
				},
				{
					"inputs": [
						{
							"internalType": "uint8",
							"name": "_status",
							"type": "uint8"
						}
					],
					"name": "setStatus",
					"outputs": [],
					"stateMutability": "nonpayable",
					"type": "function"
				}
			],
			"devdoc": {
				"kind": "dev",
				"methods": {},
				"version": 1
			},
			"evm": {
				"assembly": "    /* \"contracts/MyEnumContract.sol\":70:680  contract MyEnumContract {... */\n  mstore(0x40, 0x80)\n  callvalue\n  dup1\n  iszero\n  tag_1\n  jumpi\n  0x00\n  dup1\n  revert\ntag_1:\n  pop\n  dataSize(sub_0)\n  dup1\n  dataOffset(sub_0)\n  0x00\n  codecopy\n  0x00\n  return\nstop\n\nsub_0: assembly {\n        /* \"contracts/MyEnumContract.sol\":70:680  contract MyEnumContract {... */\n      mstore(0x40, 0x80)\n      callvalue\n      dup1\n      iszero\n      tag_1\n      jumpi\n      0x00\n      dup1\n      revert\n    tag_1:\n      pop\n      jumpi(tag_2, lt(calldatasize, 0x04))\n      shr(0xe0, calldataload(0x00))\n      dup1\n      0x2e49d78b\n      eq\n      tag_3\n      jumpi\n      dup1\n      0x4e69d560\n      eq\n      tag_4\n      jumpi\n      dup1\n      0xef8a9235\n      eq\n      tag_5\n      jumpi\n    tag_2:\n      0x00\n      dup1\n      revert\n        /* \"contracts/MyEnumContract.sol\":220:377  function setStatus(uint8 _status) public {... */\n    tag_3:\n      tag_6\n      0x04\n      dup1\n      calldatasize\n      sub\n      dup2\n      add\n      swap1\n      tag_7\n      swap2\n      swap1\n      tag_8\n      jump\t// in\n    tag_7:\n      tag_9\n      jump\t// in\n    tag_6:\n      stop\n        /* \"contracts/MyEnumContract.sol\":385:677  function getStatus() public view returns(string memory) {... */\n    tag_4:\n      tag_10\n      tag_11\n      jump\t// in\n    tag_10:\n      mload(0x40)\n      tag_12\n      swap2\n      swap1\n      tag_13\n      jump\t// in\n    tag_12:\n      mload(0x40)\n      dup1\n      swap2\n      sub\n      swap1\n      return\n        /* \"contracts/MyEnumContract.sol\":184:211  Status public currentStatus */\n    tag_5:\n      tag_14\n      tag_15\n      jump\t// in\n    tag_14:\n      mload(0x40)\n      tag_16\n      swap2\n      swap1\n      tag_17\n      jump\t// in\n    tag_16:\n      mload(0x40)\n      dup1\n      swap2\n      sub\n      swap1\n      return\n        /* \"contracts/MyEnumContract.sol\":220:377  function setStatus(uint8 _status) public {... */\n    tag_9:\n        /* \"contracts/MyEnumContract.sol\":291:292  0 */\n      0x00\n        /* \"contracts/MyEnumContract.sol\":280:287  _status */\n      dup2\n        /* \"contracts/MyEnumContract.sol\":280:292  _status >= 0 */\n      0xff\n      and\n      lt\n      iszero\n        /* \"contracts/MyEnumContract.sol\":280:308  _status >= 0 && _status <= 2 */\n      dup1\n      iszero\n      tag_19\n      jumpi\n      pop\n        /* \"contracts/MyEnumContract.sol\":307:308  2 */\n      0x02\n        /* \"contracts/MyEnumContract.sol\":296:303  _status */\n      dup2\n        /* \"contracts/MyEnumContract.sol\":296:308  _status <= 2 */\n      0xff\n      and\n      gt\n      iszero\n        /* \"contracts/MyEnumContract.sol\":280:308  _status >= 0 && _status <= 2 */\n    tag_19:\n        /* \"contracts/MyEnumContract.sol\":272:327  require(_status >= 0 && _status <= 2, \"Invalid Status\") */\n      tag_20\n      jumpi\n      mload(0x40)\n      0x08c379a000000000000000000000000000000000000000000000000000000000\n      dup2\n      mstore\n      0x04\n      add\n      tag_21\n      swap1\n      tag_22\n      jump\t// in\n    tag_21:\n      mload(0x40)\n      dup1\n      swap2\n      sub\n      swap1\n      revert\n    tag_20:\n        /* \"contracts/MyEnumContract.sol\":361:368  _status */\n      dup1\n        /* \"contracts/MyEnumContract.sol\":354:369  Status(_status) */\n      0xff\n      and\n      0x02\n      dup2\n      gt\n      iszero\n      tag_23\n      jumpi\n      tag_24\n      tag_25\n      jump\t// in\n    tag_24:\n    tag_23:\n        /* \"contracts/MyEnumContract.sol\":338:351  currentStatus */\n      0x00\n      dup1\n        /* \"contracts/MyEnumContract.sol\":338:369  currentStatus = Status(_status) */\n      0x0100\n      exp\n      dup2\n      sload\n      dup2\n      0xff\n      mul\n      not\n      and\n      swap1\n      dup4\n      0x02\n      dup2\n      gt\n      iszero\n      tag_26\n      jumpi\n      tag_27\n      tag_25\n      jump\t// in\n    tag_27:\n    tag_26:\n      mul\n      or\n      swap1\n      sstore\n      pop\n        /* \"contracts/MyEnumContract.sol\":220:377  function setStatus(uint8 _status) public {... */\n      pop\n      jump\t// out\n        /* \"contracts/MyEnumContract.sol\":385:677  function getStatus() public view returns(string memory) {... */\n    tag_11:\n        /* \"contracts/MyEnumContract.sol\":426:439  string memory */\n      0x60\n        /* \"contracts/MyEnumContract.sol\":473:487  Status.Pending */\n      0x00\n        /* \"contracts/MyEnumContract.sol\":456:487  currentStatus == Status.Pending */\n      0x02\n      dup2\n      gt\n      iszero\n      tag_29\n      jumpi\n      tag_30\n      tag_25\n      jump\t// in\n    tag_30:\n    tag_29:\n        /* \"contracts/MyEnumContract.sol\":456:469  currentStatus */\n      0x00\n      dup1\n      sload\n      swap1\n      0x0100\n      exp\n      swap1\n      div\n      0xff\n      and\n        /* \"contracts/MyEnumContract.sol\":456:487  currentStatus == Status.Pending */\n      0x02\n      dup2\n      gt\n      iszero\n      tag_31\n      jumpi\n      tag_32\n      tag_25\n      jump\t// in\n    tag_32:\n    tag_31:\n      sub\n        /* \"contracts/MyEnumContract.sol\":452:670  if (currentStatus == Status.Pending) {... */\n      tag_33\n      jumpi\n        /* \"contracts/MyEnumContract.sol\":504:520  return \"Pending\" */\n      mload(0x40)\n      dup1\n      0x40\n      add\n      0x40\n      mstore\n      dup1\n      0x07\n      dup2\n      mstore\n      0x20\n      add\n      0x50656e64696e6700000000000000000000000000000000000000000000000000\n      dup2\n      mstore\n      pop\n      swap1\n      pop\n      jump(tag_28)\n        /* \"contracts/MyEnumContract.sol\":452:670  if (currentStatus == Status.Pending) {... */\n    tag_33:\n        /* \"contracts/MyEnumContract.sol\":559:574  Status.Approved */\n      0x01\n        /* \"contracts/MyEnumContract.sol\":542:574  currentStatus == Status.Approved */\n      0x02\n      dup2\n      gt\n      iszero\n      tag_35\n      jumpi\n      tag_36\n      tag_25\n      jump\t// in\n    tag_36:\n    tag_35:\n        /* \"contracts/MyEnumContract.sol\":542:555  currentStatus */\n      0x00\n      dup1\n      sload\n      swap1\n      0x0100\n      exp\n      swap1\n      div\n      0xff\n      and\n        /* \"contracts/MyEnumContract.sol\":542:574  currentStatus == Status.Approved */\n      0x02\n      dup2\n      gt\n      iszero\n      tag_37\n      jumpi\n      tag_38\n      tag_25\n      jump\t// in\n    tag_38:\n    tag_37:\n      sub\n        /* \"contracts/MyEnumContract.sol\":538:670  if (currentStatus == Status.Approved) {... */\n      tag_39\n      jumpi\n        /* \"contracts/MyEnumContract.sol\":591:608  return \"Approved\" */\n      mload(0x40)\n      dup1\n      0x40\n      add\n      0x40\n      mstore\n      dup1\n      0x08\n      dup2\n      mstore\n      0x20\n      add\n      0x417070726f766564000000000000000000000000000000000000000000000000\n      dup2\n      mstore\n      pop\n      swap1\n      pop\n      jump(tag_28)\n        /* \"contracts/MyEnumContract.sol\":538:670  if (currentStatus == Status.Approved) {... */\n    tag_39:\n        /* \"contracts/MyEnumContract.sol\":641:658  return \"Rejected\" */\n      mload(0x40)\n      dup1\n      0x40\n      add\n      0x40\n      mstore\n      dup1\n      0x08\n      dup2\n      mstore\n      0x20\n      add\n      0x52656a6563746564000000000000000000000000000000000000000000000000\n      dup2\n      mstore\n      pop\n      swap1\n      pop\n        /* \"contracts/MyEnumContract.sol\":385:677  function getStatus() public view returns(string memory) {... */\n    tag_28:\n      swap1\n      jump\t// out\n        /* \"contracts/MyEnumContract.sol\":184:211  Status public currentStatus */\n    tag_15:\n      0x00\n      dup1\n      sload\n      swap1\n      0x0100\n      exp\n      swap1\n      div\n      0xff\n      and\n      dup2\n      jump\t// out\n        /* \"#utility.yul\":88:205   */\n    tag_42:\n        /* \"#utility.yul\":197:198   */\n      0x00\n        /* \"#utility.yul\":194:195   */\n      dup1\n        /* \"#utility.yul\":187:199   */\n      revert\n        /* \"#utility.yul\":334:420   */\n    tag_44:\n        /* \"#utility.yul\":369:376   */\n      0x00\n        /* \"#utility.yul\":409:413   */\n      0xff\n        /* \"#utility.yul\":402:407   */\n      dup3\n        /* \"#utility.yul\":398:414   */\n      and\n        /* \"#utility.yul\":387:414   */\n      swap1\n      pop\n        /* \"#utility.yul\":334:420   */\n      swap2\n      swap1\n      pop\n      jump\t// out\n        /* \"#utility.yul\":426:544   */\n    tag_45:\n        /* \"#utility.yul\":497:519   */\n      tag_64\n        /* \"#utility.yul\":513:518   */\n      dup2\n        /* \"#utility.yul\":497:519   */\n      tag_44\n      jump\t// in\n    tag_64:\n        /* \"#utility.yul\":490:495   */\n      dup2\n        /* \"#utility.yul\":487:520   */\n      eq\n        /* \"#utility.yul\":477:538   */\n      tag_65\n      jumpi\n        /* \"#utility.yul\":534:535   */\n      0x00\n        /* \"#utility.yul\":531:532   */\n      dup1\n        /* \"#utility.yul\":524:536   */\n      revert\n        /* \"#utility.yul\":477:538   */\n    tag_65:\n        /* \"#utility.yul\":426:544   */\n      pop\n      jump\t// out\n        /* \"#utility.yul\":550:685   */\n    tag_46:\n        /* \"#utility.yul\":594:599   */\n      0x00\n        /* \"#utility.yul\":632:638   */\n      dup2\n        /* \"#utility.yul\":619:639   */\n      calldataload\n        /* \"#utility.yul\":610:639   */\n      swap1\n      pop\n        /* \"#utility.yul\":648:679   */\n      tag_67\n        /* \"#utility.yul\":673:678   */\n      dup2\n        /* \"#utility.yul\":648:679   */\n      tag_45\n      jump\t// in\n    tag_67:\n        /* \"#utility.yul\":550:685   */\n      swap3\n      swap2\n      pop\n      pop\n      jump\t// out\n        /* \"#utility.yul\":691:1016   */\n    tag_8:\n        /* \"#utility.yul\":748:754   */\n      0x00\n        /* \"#utility.yul\":797:799   */\n      0x20\n        /* \"#utility.yul\":785:794   */\n      dup3\n        /* \"#utility.yul\":776:783   */\n      dup5\n        /* \"#utility.yul\":772:795   */\n      sub\n        /* \"#utility.yul\":768:800   */\n      slt\n        /* \"#utility.yul\":765:884   */\n      iszero\n      tag_69\n      jumpi\n        /* \"#utility.yul\":803:882   */\n      tag_70\n      tag_42\n      jump\t// in\n    tag_70:\n        /* \"#utility.yul\":765:884   */\n    tag_69:\n        /* \"#utility.yul\":923:924   */\n      0x00\n        /* \"#utility.yul\":948:999   */\n      tag_71\n        /* \"#utility.yul\":991:998   */\n      dup5\n        /* \"#utility.yul\":982:988   */\n      dup3\n        /* \"#utility.yul\":971:980   */\n      dup6\n        /* \"#utility.yul\":967:989   */\n      add\n        /* \"#utility.yul\":948:999   */\n      tag_46\n      jump\t// in\n    tag_71:\n        /* \"#utility.yul\":938:999   */\n      swap2\n      pop\n        /* \"#utility.yul\":894:1009   */\n      pop\n        /* \"#utility.yul\":691:1016   */\n      swap3\n      swap2\n      pop\n      pop\n      jump\t// out\n        /* \"#utility.yul\":1022:1121   */\n    tag_47:\n        /* \"#utility.yul\":1074:1080   */\n      0x00\n        /* \"#utility.yul\":1108:1113   */\n      dup2\n        /* \"#utility.yul\":1102:1114   */\n      mload\n        /* \"#utility.yul\":1092:1114   */\n      swap1\n      pop\n        /* \"#utility.yul\":1022:1121   */\n      swap2\n      swap1\n      pop\n      jump\t// out\n        /* \"#utility.yul\":1127:1296   */\n    tag_48:\n        /* \"#utility.yul\":1211:1222   */\n      0x00\n        /* \"#utility.yul\":1245:1251   */\n      dup3\n        /* \"#utility.yul\":1240:1243   */\n      dup3\n        /* \"#utility.yul\":1233:1252   */\n      mstore\n        /* \"#utility.yul\":1285:1289   */\n      0x20\n        /* \"#utility.yul\":1280:1283   */\n      dup3\n        /* \"#utility.yul\":1276:1290   */\n      add\n        /* \"#utility.yul\":1261:1290   */\n      swap1\n      pop\n        /* \"#utility.yul\":1127:1296   */\n      swap3\n      swap2\n      pop\n      pop\n      jump\t// out\n        /* \"#utility.yul\":1302:1441   */\n    tag_49:\n        /* \"#utility.yul\":1391:1397   */\n      dup3\n        /* \"#utility.yul\":1386:1389   */\n      dup2\n        /* \"#utility.yul\":1381:1384   */\n      dup4\n        /* \"#utility.yul\":1375:1398   */\n      mcopy\n        /* \"#utility.yul\":1432:1433   */\n      0x00\n        /* \"#utility.yul\":1423:1429   */\n      dup4\n        /* \"#utility.yul\":1418:1421   */\n      dup4\n        /* \"#utility.yul\":1414:1430   */\n      add\n        /* \"#utility.yul\":1407:1434   */\n      mstore\n        /* \"#utility.yul\":1302:1441   */\n      pop\n      pop\n      pop\n      jump\t// out\n        /* \"#utility.yul\":1447:1549   */\n    tag_50:\n        /* \"#utility.yul\":1488:1494   */\n      0x00\n        /* \"#utility.yul\":1539:1541   */\n      0x1f\n        /* \"#utility.yul\":1535:1542   */\n      not\n        /* \"#utility.yul\":1530:1532   */\n      0x1f\n        /* \"#utility.yul\":1523:1528   */\n      dup4\n        /* \"#utility.yul\":1519:1533   */\n      add\n        /* \"#utility.yul\":1515:1543   */\n      and\n        /* \"#utility.yul\":1505:1543   */\n      swap1\n      pop\n        /* \"#utility.yul\":1447:1549   */\n      swap2\n      swap1\n      pop\n      jump\t// out\n        /* \"#utility.yul\":1555:1932   */\n    tag_51:\n        /* \"#utility.yul\":1643:1646   */\n      0x00\n        /* \"#utility.yul\":1671:1710   */\n      tag_77\n        /* \"#utility.yul\":1704:1709   */\n      dup3\n        /* \"#utility.yul\":1671:1710   */\n      tag_47\n      jump\t// in\n    tag_77:\n        /* \"#utility.yul\":1726:1797   */\n      tag_78\n        /* \"#utility.yul\":1790:1796   */\n      dup2\n        /* \"#utility.yul\":1785:1788   */\n      dup6\n        /* \"#utility.yul\":1726:1797   */\n      tag_48\n      jump\t// in\n    tag_78:\n        /* \"#utility.yul\":1719:1797   */\n      swap4\n      pop\n        /* \"#utility.yul\":1806:1871   */\n      tag_79\n        /* \"#utility.yul\":1864:1870   */\n      dup2\n        /* \"#utility.yul\":1859:1862   */\n      dup6\n        /* \"#utility.yul\":1852:1856   */\n      0x20\n        /* \"#utility.yul\":1845:1850   */\n      dup7\n        /* \"#utility.yul\":1841:1857   */\n      add\n        /* \"#utility.yul\":1806:1871   */\n      tag_49\n      jump\t// in\n    tag_79:\n        /* \"#utility.yul\":1896:1925   */\n      tag_80\n        /* \"#utility.yul\":1918:1924   */\n      dup2\n        /* \"#utility.yul\":1896:1925   */\n      tag_50\n      jump\t// in\n    tag_80:\n        /* \"#utility.yul\":1891:1894   */\n      dup5\n        /* \"#utility.yul\":1887:1926   */\n      add\n        /* \"#utility.yul\":1880:1926   */\n      swap2\n      pop\n        /* \"#utility.yul\":1647:1932   */\n      pop\n        /* \"#utility.yul\":1555:1932   */\n      swap3\n      swap2\n      pop\n      pop\n      jump\t// out\n        /* \"#utility.yul\":1938:2251   */\n    tag_13:\n        /* \"#utility.yul\":2051:2055   */\n      0x00\n        /* \"#utility.yul\":2089:2091   */\n      0x20\n        /* \"#utility.yul\":2078:2087   */\n      dup3\n        /* \"#utility.yul\":2074:2092   */\n      add\n        /* \"#utility.yul\":2066:2092   */\n      swap1\n      pop\n        /* \"#utility.yul\":2138:2147   */\n      dup2\n        /* \"#utility.yul\":2132:2136   */\n      dup2\n        /* \"#utility.yul\":2128:2148   */\n      sub\n        /* \"#utility.yul\":2124:2125   */\n      0x00\n        /* \"#utility.yul\":2113:2122   */\n      dup4\n        /* \"#utility.yul\":2109:2126   */\n      add\n        /* \"#utility.yul\":2102:2149   */\n      mstore\n        /* \"#utility.yul\":2166:2244   */\n      tag_82\n        /* \"#utility.yul\":2239:2243   */\n      dup2\n        /* \"#utility.yul\":2230:2236   */\n      dup5\n        /* \"#utility.yul\":2166:2244   */\n      tag_51\n      jump\t// in\n    tag_82:\n        /* \"#utility.yul\":2158:2244   */\n      swap1\n      pop\n        /* \"#utility.yul\":1938:2251   */\n      swap3\n      swap2\n      pop\n      pop\n      jump\t// out\n        /* \"#utility.yul\":2257:2437   */\n    tag_25:\n        /* \"#utility.yul\":2305:2382   */\n      0x4e487b7100000000000000000000000000000000000000000000000000000000\n        /* \"#utility.yul\":2302:2303   */\n      0x00\n        /* \"#utility.yul\":2295:2383   */\n      mstore\n        /* \"#utility.yul\":2402:2406   */\n      0x21\n        /* \"#utility.yul\":2399:2400   */\n      0x04\n        /* \"#utility.yul\":2392:2407   */\n      mstore\n        /* \"#utility.yul\":2426:2430   */\n      0x24\n        /* \"#utility.yul\":2423:2424   */\n      0x00\n        /* \"#utility.yul\":2416:2431   */\n      revert\n        /* \"#utility.yul\":2443:2556   */\n    tag_52:\n        /* \"#utility.yul\":2524:2525   */\n      0x03\n        /* \"#utility.yul\":2517:2522   */\n      dup2\n        /* \"#utility.yul\":2514:2526   */\n      lt\n        /* \"#utility.yul\":2504:2550   */\n      tag_85\n      jumpi\n        /* \"#utility.yul\":2530:2548   */\n      tag_86\n      tag_25\n      jump\t// in\n    tag_86:\n        /* \"#utility.yul\":2504:2550   */\n    tag_85:\n        /* \"#utility.yul\":2443:2556   */\n      pop\n      jump\t// out\n        /* \"#utility.yul\":2562:2689   */\n    tag_53:\n        /* \"#utility.yul\":2607:2614   */\n      0x00\n        /* \"#utility.yul\":2636:2641   */\n      dup2\n        /* \"#utility.yul\":2625:2641   */\n      swap1\n      pop\n        /* \"#utility.yul\":2642:2683   */\n      tag_88\n        /* \"#utility.yul\":2677:2682   */\n      dup3\n        /* \"#utility.yul\":2642:2683   */\n      tag_52\n      jump\t// in\n    tag_88:\n        /* \"#utility.yul\":2562:2689   */\n      swap2\n      swap1\n      pop\n      jump\t// out\n        /* \"#utility.yul\":2695:2822   */\n    tag_54:\n        /* \"#utility.yul\":2751:2760   */\n      0x00\n        /* \"#utility.yul\":2784:2816   */\n      tag_90\n        /* \"#utility.yul\":2810:2815   */\n      dup3\n        /* \"#utility.yul\":2784:2816   */\n      tag_53\n      jump\t// in\n    tag_90:\n        /* \"#utility.yul\":2771:2816   */\n      swap1\n      pop\n        /* \"#utility.yul\":2695:2822   */\n      swap2\n      swap1\n      pop\n      jump\t// out\n        /* \"#utility.yul\":2828:2971   */\n    tag_55:\n        /* \"#utility.yul\":2921:2964   */\n      tag_92\n        /* \"#utility.yul\":2958:2963   */\n      dup2\n        /* \"#utility.yul\":2921:2964   */\n      tag_54\n      jump\t// in\n    tag_92:\n        /* \"#utility.yul\":2916:2919   */\n      dup3\n        /* \"#utility.yul\":2909:2965   */\n      mstore\n        /* \"#utility.yul\":2828:2971   */\n      pop\n      pop\n      jump\t// out\n        /* \"#utility.yul\":2977:3211   */\n    tag_17:\n        /* \"#utility.yul\":3076:3080   */\n      0x00\n        /* \"#utility.yul\":3114:3116   */\n      0x20\n        /* \"#utility.yul\":3103:3112   */\n      dup3\n        /* \"#utility.yul\":3099:3117   */\n      add\n        /* \"#utility.yul\":3091:3117   */\n      swap1\n      pop\n        /* \"#utility.yul\":3127:3204   */\n      tag_94\n        /* \"#utility.yul\":3201:3202   */\n      0x00\n        /* \"#utility.yul\":3190:3199   */\n      dup4\n        /* \"#utility.yul\":3186:3203   */\n      add\n        /* \"#utility.yul\":3177:3183   */\n      dup5\n        /* \"#utility.yul\":3127:3204   */\n      tag_55\n      jump\t// in\n    tag_94:\n        /* \"#utility.yul\":2977:3211   */\n      swap3\n      swap2\n      pop\n      pop\n      jump\t// out\n        /* \"#utility.yul\":3217:3381   */\n    tag_56:\n        /* \"#utility.yul\":3357:3373   */\n      0x496e76616c696420537461747573000000000000000000000000000000000000\n        /* \"#utility.yul\":3353:3354   */\n      0x00\n        /* \"#utility.yul\":3345:3351   */\n      dup3\n        /* \"#utility.yul\":3341:3355   */\n      add\n        /* \"#utility.yul\":3334:3374   */\n      mstore\n        /* \"#utility.yul\":3217:3381   */\n      pop\n      jump\t// out\n        /* \"#utility.yul\":3387:3753   */\n    tag_57:\n        /* \"#utility.yul\":3529:3532   */\n      0x00\n        /* \"#utility.yul\":3550:3617   */\n      tag_97\n        /* \"#utility.yul\":3614:3616   */\n      0x0e\n        /* \"#utility.yul\":3609:3612   */\n      dup4\n        /* \"#utility.yul\":3550:3617   */\n      tag_48\n      jump\t// in\n    tag_97:\n        /* \"#utility.yul\":3543:3617   */\n      swap2\n      pop\n        /* \"#utility.yul\":3626:3719   */\n      tag_98\n        /* \"#utility.yul\":3715:3718   */\n      dup3\n        /* \"#utility.yul\":3626:3719   */\n      tag_56\n      jump\t// in\n    tag_98:\n        /* \"#utility.yul\":3744:3746   */\n      0x20\n        /* \"#utility.yul\":3739:3742   */\n      dup3\n        /* \"#utility.yul\":3735:3747   */\n      add\n        /* \"#utility.yul\":3728:3747   */\n      swap1\n      pop\n        /* \"#utility.yul\":3387:3753   */\n      swap2\n      swap1\n      pop\n      jump\t// out\n        /* \"#utility.yul\":3759:4178   */\n    tag_22:\n        /* \"#utility.yul\":3925:3929   */\n      0x00\n        /* \"#utility.yul\":3963:3965   */\n      0x20\n        /* \"#utility.yul\":3952:3961   */\n      dup3\n        /* \"#utility.yul\":3948:3966   */\n      add\n        /* \"#utility.yul\":3940:3966   */\n      swap1\n      pop\n        /* \"#utility.yul\":4012:4021   */\n      dup2\n        /* \"#utility.yul\":4006:4010   */\n      dup2\n        /* \"#utility.yul\":4002:4022   */\n      sub\n        /* \"#utility.yul\":3998:3999   */\n      0x00\n        /* \"#utility.yul\":3987:3996   */\n      dup4\n        /* \"#utility.yul\":3983:4000   */\n      add\n        /* \"#utility.yul\":3976:4023   */\n      mstore\n        /* \"#utility.yul\":4040:4171   */\n      tag_100\n        /* \"#utility.yul\":4166:4170   */\n      dup2\n        /* \"#utility.yul\":4040:4171   */\n      tag_57\n      jump\t// in\n    tag_100:\n        /* \"#utility.yul\":4032:4171   */\n      swap1\n      pop\n        /* \"#utility.yul\":3759:4178   */\n      swap2\n      swap1\n      pop\n      jump\t// out\n\n    auxdata: 0xa26469706673582212200bb1375a0131794f6a3f8ee86426c4e2a43d9f699280c389d1bd254ce73b36e664736f6c634300081a0033\n}\n",
				"bytecode": {
					"linkReferences": {},
					"object": "6080604052348015600e575f80fd5b506104878061001c5f395ff3fe608060405234801561000f575f80fd5b506004361061003f575f3560e01c80632e49d78b146100435780634e69d5601461005f578063ef8a92351461007d575b5f80fd5b61005d600480360381019061005891906102a2565b61009b565b005b610067610131565b604051610074919061033d565b60405180910390f35b610085610258565b60405161009291906103d0565b60405180910390f35b5f8160ff16101580156100b2575060028160ff1611155b6100f1576040517f08c379a00000000000000000000000000000000000000000000000000000000081526004016100e890610433565b60405180910390fd5b8060ff1660028111156101075761010661035d565b5b5f806101000a81548160ff021916908360028111156101295761012861035d565b5b021790555050565b60605f60028111156101465761014561035d565b5b5f8054906101000a900460ff1660028111156101655761016461035d565b5b036101a7576040518060400160405280600781526020017f50656e64696e67000000000000000000000000000000000000000000000000008152509050610255565b600160028111156101bb576101ba61035d565b5b5f8054906101000a900460ff1660028111156101da576101d961035d565b5b0361021c576040518060400160405280600881526020017f417070726f7665640000000000000000000000000000000000000000000000008152509050610255565b6040518060400160405280600881526020017f52656a656374656400000000000000000000000000000000000000000000000081525090505b90565b5f8054906101000a900460ff1681565b5f80fd5b5f60ff82169050919050565b6102818161026c565b811461028b575f80fd5b50565b5f8135905061029c81610278565b92915050565b5f602082840312156102b7576102b6610268565b5b5f6102c48482850161028e565b91505092915050565b5f81519050919050565b5f82825260208201905092915050565b8281835e5f83830152505050565b5f601f19601f8301169050919050565b5f61030f826102cd565b61031981856102d7565b93506103298185602086016102e7565b610332816102f5565b840191505092915050565b5f6020820190508181035f8301526103558184610305565b905092915050565b7f4e487b71000000000000000000000000000000000000000000000000000000005f52602160045260245ffd5b6003811061039b5761039a61035d565b5b50565b5f8190506103ab8261038a565b919050565b5f6103ba8261039e565b9050919050565b6103ca816103b0565b82525050565b5f6020820190506103e35f8301846103c1565b92915050565b7f496e76616c6964205374617475730000000000000000000000000000000000005f82015250565b5f61041d600e836102d7565b9150610428826103e9565b602082019050919050565b5f6020820190508181035f83015261044a81610411565b905091905056fea26469706673582212200bb1375a0131794f6a3f8ee86426c4e2a43d9f699280c389d1bd254ce73b36e664736f6c634300081a0033",
					"opcodes": "PUSH1 0x80 PUSH1 0x40 MSTORE CALLVALUE DUP1 ISZERO PUSH1 0xE JUMPI PUSH0 DUP1 REVERT JUMPDEST POP PUSH2 0x487 DUP1 PUSH2 0x1C PUSH0 CODECOPY PUSH0 RETURN INVALID PUSH1 0x80 PUSH1 0x40 MSTORE CALLVALUE DUP1 ISZERO PUSH2 0xF JUMPI PUSH0 DUP1 REVERT JUMPDEST POP PUSH1 0x4 CALLDATASIZE LT PUSH2 0x3F JUMPI PUSH0 CALLDATALOAD PUSH1 0xE0 SHR DUP1 PUSH4 0x2E49D78B EQ PUSH2 0x43 JUMPI DUP1 PUSH4 0x4E69D560 EQ PUSH2 0x5F JUMPI DUP1 PUSH4 0xEF8A9235 EQ PUSH2 0x7D JUMPI JUMPDEST PUSH0 DUP1 REVERT JUMPDEST PUSH2 0x5D PUSH1 0x4 DUP1 CALLDATASIZE SUB DUP2 ADD SWAP1 PUSH2 0x58 SWAP2 SWAP1 PUSH2 0x2A2 JUMP JUMPDEST PUSH2 0x9B JUMP JUMPDEST STOP JUMPDEST PUSH2 0x67 PUSH2 0x131 JUMP JUMPDEST PUSH1 0x40 MLOAD PUSH2 0x74 SWAP2 SWAP1 PUSH2 0x33D JUMP JUMPDEST PUSH1 0x40 MLOAD DUP1 SWAP2 SUB SWAP1 RETURN JUMPDEST PUSH2 0x85 PUSH2 0x258 JUMP JUMPDEST PUSH1 0x40 MLOAD PUSH2 0x92 SWAP2 SWAP1 PUSH2 0x3D0 JUMP JUMPDEST PUSH1 0x40 MLOAD DUP1 SWAP2 SUB SWAP1 RETURN JUMPDEST PUSH0 DUP2 PUSH1 0xFF AND LT ISZERO DUP1 ISZERO PUSH2 0xB2 JUMPI POP PUSH1 0x2 DUP2 PUSH1 0xFF AND GT ISZERO JUMPDEST PUSH2 0xF1 JUMPI PUSH1 0x40 MLOAD PUSH32 0x8C379A000000000000000000000000000000000000000000000000000000000 DUP2 MSTORE PUSH1 0x4 ADD PUSH2 0xE8 SWAP1 PUSH2 0x433 JUMP JUMPDEST PUSH1 0x40 MLOAD DUP1 SWAP2 SUB SWAP1 REVERT JUMPDEST DUP1 PUSH1 0xFF AND PUSH1 0x2 DUP2 GT ISZERO PUSH2 0x107 JUMPI PUSH2 0x106 PUSH2 0x35D JUMP JUMPDEST JUMPDEST PUSH0 DUP1 PUSH2 0x100 EXP DUP2 SLOAD DUP2 PUSH1 0xFF MUL NOT AND SWAP1 DUP4 PUSH1 0x2 DUP2 GT ISZERO PUSH2 0x129 JUMPI PUSH2 0x128 PUSH2 0x35D JUMP JUMPDEST JUMPDEST MUL OR SWAP1 SSTORE POP POP JUMP JUMPDEST PUSH1 0x60 PUSH0 PUSH1 0x2 DUP2 GT ISZERO PUSH2 0x146 JUMPI PUSH2 0x145 PUSH2 0x35D JUMP JUMPDEST JUMPDEST PUSH0 DUP1 SLOAD SWAP1 PUSH2 0x100 EXP SWAP1 DIV PUSH1 0xFF AND PUSH1 0x2 DUP2 GT ISZERO PUSH2 0x165 JUMPI PUSH2 0x164 PUSH2 0x35D JUMP JUMPDEST JUMPDEST SUB PUSH2 0x1A7 JUMPI PUSH1 0x40 MLOAD DUP1 PUSH1 0x40 ADD PUSH1 0x40 MSTORE DUP1 PUSH1 0x7 DUP2 MSTORE PUSH1 0x20 ADD PUSH32 0x50656E64696E6700000000000000000000000000000000000000000000000000 DUP2 MSTORE POP SWAP1 POP PUSH2 0x255 JUMP JUMPDEST PUSH1 0x1 PUSH1 0x2 DUP2 GT ISZERO PUSH2 0x1BB JUMPI PUSH2 0x1BA PUSH2 0x35D JUMP JUMPDEST JUMPDEST PUSH0 DUP1 SLOAD SWAP1 PUSH2 0x100 EXP SWAP1 DIV PUSH1 0xFF AND PUSH1 0x2 DUP2 GT ISZERO PUSH2 0x1DA JUMPI PUSH2 0x1D9 PUSH2 0x35D JUMP JUMPDEST JUMPDEST SUB PUSH2 0x21C JUMPI PUSH1 0x40 MLOAD DUP1 PUSH1 0x40 ADD PUSH1 0x40 MSTORE DUP1 PUSH1 0x8 DUP2 MSTORE PUSH1 0x20 ADD PUSH32 0x417070726F766564000000000000000000000000000000000000000000000000 DUP2 MSTORE POP SWAP1 POP PUSH2 0x255 JUMP JUMPDEST PUSH1 0x40 MLOAD DUP1 PUSH1 0x40 ADD PUSH1 0x40 MSTORE DUP1 PUSH1 0x8 DUP2 MSTORE PUSH1 0x20 ADD PUSH32 0x52656A6563746564000000000000000000000000000000000000000000000000 DUP2 MSTORE POP SWAP1 POP JUMPDEST SWAP1 JUMP JUMPDEST PUSH0 DUP1 SLOAD SWAP1 PUSH2 0x100 EXP SWAP1 DIV PUSH1 0xFF AND DUP2 JUMP JUMPDEST PUSH0 DUP1 REVERT JUMPDEST PUSH0 PUSH1 0xFF DUP3 AND SWAP1 POP SWAP2 SWAP1 POP JUMP JUMPDEST PUSH2 0x281 DUP2 PUSH2 0x26C JUMP JUMPDEST DUP2 EQ PUSH2 0x28B JUMPI PUSH0 DUP1 REVERT JUMPDEST POP JUMP JUMPDEST PUSH0 DUP2 CALLDATALOAD SWAP1 POP PUSH2 0x29C DUP2 PUSH2 0x278 JUMP JUMPDEST SWAP3 SWAP2 POP POP JUMP JUMPDEST PUSH0 PUSH1 0x20 DUP3 DUP5 SUB SLT ISZERO PUSH2 0x2B7 JUMPI PUSH2 0x2B6 PUSH2 0x268 JUMP JUMPDEST JUMPDEST PUSH0 PUSH2 0x2C4 DUP5 DUP3 DUP6 ADD PUSH2 0x28E JUMP JUMPDEST SWAP2 POP POP SWAP3 SWAP2 POP POP JUMP JUMPDEST PUSH0 DUP2 MLOAD SWAP1 POP SWAP2 SWAP1 POP JUMP JUMPDEST PUSH0 DUP3 DUP3 MSTORE PUSH1 0x20 DUP3 ADD SWAP1 POP SWAP3 SWAP2 POP POP JUMP JUMPDEST DUP3 DUP2 DUP4 MCOPY PUSH0 DUP4 DUP4 ADD MSTORE POP POP POP JUMP JUMPDEST PUSH0 PUSH1 0x1F NOT PUSH1 0x1F DUP4 ADD AND SWAP1 POP SWAP2 SWAP1 POP JUMP JUMPDEST PUSH0 PUSH2 0x30F DUP3 PUSH2 0x2CD JUMP JUMPDEST PUSH2 0x319 DUP2 DUP6 PUSH2 0x2D7 JUMP JUMPDEST SWAP4 POP PUSH2 0x329 DUP2 DUP6 PUSH1 0x20 DUP7 ADD PUSH2 0x2E7 JUMP JUMPDEST PUSH2 0x332 DUP2 PUSH2 0x2F5 JUMP JUMPDEST DUP5 ADD SWAP2 POP POP SWAP3 SWAP2 POP POP JUMP JUMPDEST PUSH0 PUSH1 0x20 DUP3 ADD SWAP1 POP DUP2 DUP2 SUB PUSH0 DUP4 ADD MSTORE PUSH2 0x355 DUP2 DUP5 PUSH2 0x305 JUMP JUMPDEST SWAP1 POP SWAP3 SWAP2 POP POP JUMP JUMPDEST PUSH32 0x4E487B7100000000000000000000000000000000000000000000000000000000 PUSH0 MSTORE PUSH1 0x21 PUSH1 0x4 MSTORE PUSH1 0x24 PUSH0 REVERT JUMPDEST PUSH1 0x3 DUP2 LT PUSH2 0x39B JUMPI PUSH2 0x39A PUSH2 0x35D JUMP JUMPDEST JUMPDEST POP JUMP JUMPDEST PUSH0 DUP2 SWAP1 POP PUSH2 0x3AB DUP3 PUSH2 0x38A JUMP JUMPDEST SWAP2 SWAP1 POP JUMP JUMPDEST PUSH0 PUSH2 0x3BA DUP3 PUSH2 0x39E JUMP JUMPDEST SWAP1 POP SWAP2 SWAP1 POP JUMP JUMPDEST PUSH2 0x3CA DUP2 PUSH2 0x3B0 JUMP JUMPDEST DUP3 MSTORE POP POP JUMP JUMPDEST PUSH0 PUSH1 0x20 DUP3 ADD SWAP1 POP PUSH2 0x3E3 PUSH0 DUP4 ADD DUP5 PUSH2 0x3C1 JUMP JUMPDEST SWAP3 SWAP2 POP POP JUMP JUMPDEST PUSH32 0x496E76616C696420537461747573000000000000000000000000000000000000 PUSH0 DUP3 ADD MSTORE POP JUMP JUMPDEST PUSH0 PUSH2 0x41D PUSH1 0xE DUP4 PUSH2 0x2D7 JUMP JUMPDEST SWAP2 POP PUSH2 0x428 DUP3 PUSH2 0x3E9 JUMP JUMPDEST PUSH1 0x20 DUP3 ADD SWAP1 POP SWAP2 SWAP1 POP JUMP JUMPDEST PUSH0 PUSH1 0x20 DUP3 ADD SWAP1 POP DUP2 DUP2 SUB PUSH0 DUP4 ADD MSTORE PUSH2 0x44A DUP2 PUSH2 0x411 JUMP JUMPDEST SWAP1 POP SWAP2 SWAP1 POP JUMP INVALID LOG2 PUSH5 0x6970667358 0x22 SLT KECCAK256 SIGNEXTEND 0xB1 CALLDATACOPY GAS ADD BALANCE PUSH26 0x4F6A3F8EE86426C4E2A43D9F699280C389D1BD254CE73B36E664 PUSH20 0x6F6C634300081A00330000000000000000000000 "
				},
				"gasEstimates": {
					"creation": {
						"codeDepositCost": "231800",
						"executionCost": "273",
						"totalCost": "232073"
					},
					"external": {
						"currentStatus()": "2573",
						"getStatus()": "infinite",
						"setStatus(uint8)": "24774"
					}
				},
				"methodIdentifiers": {
					"currentStatus()": "ef8a9235",
					"getStatus()": "4e69d560",
					"setStatus(uint8)": "2e49d78b"
				}
			},
			"storageLayout": {
				"storage": [
					{
						"astId": 8,
						"contract": "contracts/MyEnumContract.sol:MyEnumContract",
						"label": "currentStatus",
						"offset": 0,
						"slot": "0",
						"type": "t_enum(Status)5"
					}
				],
				"types": {
					"t_enum(Status)5": {
						"encoding": "inplace",
						"label": "enum MyEnumContract.Status",
						"numberOfBytes": "1"
					}
				}
			},
			"userdoc": {
				"kind": "user",
				"methods": {},
				"version": 1
			}
		}
	}
}